:020000040000FA
:060000004FEF25F0120095
:020006001200E6
:06000800C3EF22F012001C
:01000E0000F1
:01000F0000F0
:0400100000000000EC
:0600180045EF22F012008A
:02001E000900D7
:10002000AA4B00002C010000290000008F4B0000AB
:10003000E50000001B000000100000008B01000024
:10004000040000002E4B0000000F000061000000C3
:10005000024B0000000100002C0000000F00000017
:100060009101000001000000F64A00007501000047
:100070000C000000D64A00005501000020000000DE
:0C0080000E0000009001000001000000D4
:04008C0066D8E80E3C
:10009000E66E030EE66E18D8E552E55201016005E2
:1000A000FDE1320EE66EE66A33EC18F0E552E552F9
:1000B00098D857D952DB3CEC05F05FEC0DF074ECAE
:1000C0001EF025EC13F0EAD7D9CFE6FFE1CFD9FF38
:1000D000040EE126DE6ADD6ADECF10F0DDCF11F01E
:1000E000FD0EDBCF12F0FE0EDBCF13F01150131814
:1000F000E8AE02D0133404D01250105C13501158E3
:100100001DE2020EDB6A030EDB6A020EDBCF10F08B
:10011000030EDBCF11F0D890115004E6EE0E105C08
:10012000000E115806E2020EDB2A030EEEE3DB2A74
:10013000ECD7DF2A010ED0E3DB2ACED7040EE15C38
:1001400002E2E16AE552E16EE552E7CFD9FF120023
:10015000956A836A936A816A120001011669010E29
:10016000176F460E276F01017A6BF2DFDFEC1FF08D
:100170000A0EE66EE66AE66EE66A00EC1AF0E552F2
:10018000E552E552E5520A0EE66EE66AE66EE66A6A
:1001900029EC1AF0E552E552E552E55255EC0FF024
:1001A0006FEC1EF03DEC22F096EC1AF0FFEC10F034
:1001B000F6EC12F0F40EE66E010EE66E85DFE55207
:1001C000E552660EE66EB70EE66E08EC17F0E552E5
:1001D000E552320EE66EE66A33EC18F0E552E5526F
:1001E000120001011751050A01E19BD0010A71E0DB
:1001F000070A46E0010A1BE0030A01E012001DC1E4
:1002000019F11EC118F11FC11AF1F6EC12F019C153
:1002100021F118C11BF119C11CF10101140E236F4A
:1002200013EC20F04AEC20F00101020E97D01B5194
:10023000E66EE66A2EEC19F0E552E55201011C511A
:10024000E66EE66A97EC19F0E552E552010123519A
:10025000000805E31B071C07140E236F2107230763
:100260002151000801E27CD03FEC20F01AC121F1BD
:1002700001011951185D1B6F1AC11CF1030E6ED0DC
:100280001B51E66EE66A2EEC19F0E552E5520101CB
:100290001C51E66EE66A97EC19F0E552E552010151
:1002A0002351000805E31B071C07140E236F2107C9
:1002B00023072151000854E319C121F129EC20F052
:1002C00034EC20F019C11BF118C11CF10101040E1E
:1002D00045D01B51E66EE66A2EEC19F0E552E55268
:1002E00001011C51E66EE66A97EC19F0E552E55201
:1002F00001012351000805E31B071C07140E236F9F
:1003000021072307215100082BE31AC121F11EEC1C
:1003100020F01AC11BF101011951185D1C6F050E67
:100320001DD01B51E66EE66A2EEC19F0E552E5523F
:1003300001011C51E66EE66A97EC19F0E552E552B0
:1003400001012351000805E31B071C07140E236F4E
:10035000210723072151000803E3010E176F120044
:100360001200010116510E0A01E17ED1030A01E1DA
:1003700003D1010A01E187D0070A0EE0010A01E07A
:100380001200F6EC12F00101060E176F0B0E166F3D
:1003900013EC20F04AEF20F0060E176F6D0EE66E9C
:1003A000440EE66EE66AE66A7AEC15F0E552E5522E
:1003B000E552E5525E0EE66E440EE66EE66A010E0A
:1003C000E66E7AEC15F0E552E552E552E552640E20
:1003D000E66EE66A2EEC19F0E552E552640EE66E22
:1003E000E66A97EC19F0E552E55201012251000846
:1003F00003E3140E226F250722072551000803E3AB
:10040000010E176F1669010EE66EE66A23EC1FF007
:10041000E552E55201080EE10101140E226F0E0EA5
:10042000166F1EEC20F034EC20F0F6EC12F0010117
:10043000140E256F020EE66EE66A23EC1FF0E552FD
:10044000E55201080EE10101140E226F0C0E166F29
:1004500013EC20F03FEC20F0F6EC12F00101140E4A
:10046000256F000EE66EE66A23EC1FF0E552E552BA
:10047000010801E071D10101010E286FF6EC12F0C4
:100480000101320E67D1060E176F6D0EE66E440E37
:10049000E66EE66AE66A7AEC15F0E552E552E55258
:1004A000E5524E0EE66E440EE66EE66A010EE66E0C
:1004B0007AEC15F0E552E552E552E552640EE66E2F
:1004C000E66A2EEC19F0E552E552640EE66EE66A35
:1004D00097EC19F0E552E55201012251000803E3BF
:1004E000140E226F250722072551000804E3020E8F
:1004F000176F216B1669010EE66EE66A23EC1FF09A
:10050000E552E55201080EE10101140E226F0B0EB7
:10051000166F13EC20F04AEC20F0F6EC12F001011B
:10052000140E256F020EE66EE66A23EC1FF0E5520C
:10053000E55201080EE10101140E226F0D0E166F37
:1005400029EC20F034EC20F0F6EC12F00101140E4E
:10055000256F000EE66EE66A23EC1FF0E552E552C9
:10056000010801E0F9D00101010E286FF6EC12F04C
:100570000101216B330EEED0060E176F3F0EE66EB3
:10058000440EE66EE66AE66A7AEC15F0E552E5524C
:10059000E552E552320EE66E440EE66EE66A010E54
:1005A000E66E7AEC15F0E552E552E552E552640E3E
:1005B000E66EE66A2EEC19F0E552E552640EE66E40
:1005C000E66A97EC19F0E552E55201012251000864
:1005D00003E3140E226F250722072551000804E3C8
:1005E000030E176F216B1669010EE66EE66A23ECA7
:1005F0001FF0E552E55201080EE10101140E226FD1
:100600000C0E166F13EC20F03FEC20F0F6EC12F01D
:100610000101140E256F020EE66EE66A23EC1FF050
:10062000E552E55201080EE10101140E226F0E0E93
:10063000166F1EEC20F034EC20F0F6EC12F0010105
:10064000140E256F000EE66EE66A23EC1FF0E552ED
:10065000E552010801E080D00101010E286FF6EC9F
:1006600012F00101340E76D0060E176F220EE66EE0
:10067000440EE66EE66AE66A7AEC15F0E552E5525B
:10068000E552E552320EE66E440EE66EE66A010E63
:10069000E66E7AEC15F0E552E552E552E552640E4D
:1006A000E66EE66A2EEC19F0E552E552640EE66E4F
:1006B000E66A97EC19F0E552E55201012251000873
:1006C00003E3140E226F250722072551000804E3D7
:1006D000040E176F216B1669010EE66EE66A23ECB5
:1006E0001FF0E552E55201080EE10101140E226FE0
:1006F0000D0E166F29EC20F034EC20F0F6EC12F021
:100700000101140E256F020EE66EE66A23EC1FF05F
:10071000E552E55201080EE10101140E226F0B0EA5
:10072000166F13EC20F04AEC20F0F6EC12F0010109
:10073000140E256F000EE66EE66A23EC1FF0E552FC
:10074000E552010809E10101010E286FF6EC12F0F3
:100750000101350E166F1200120001011651170A21
:1007600001E10CD1010A01E18CD0030A0DE0010A7C
:1007700001E01200F6EC12F00101140E256F150EC7
:10078000166F18C126F11200F6EC12F0180EE66E84
:10079000440EE66EE66AE66A7AEC15F0E552E5523A
:1007A000E552E55226C110F0116A126A136A26C199
:1007B000E6FF11C0E6FF12C0E6FF13C0E6FF0A0E17
:1007C000E66EE66A53EC14F0146E060EE15E145009
:1007D000070EE66E440EE66EE66A010EE66E7AECF1
:1007E00015F0E552E552E552E552010122510008AB
:1007F00003E3140E226F250722072551000801E3A9
:10080000166950EC1FF0010809E10101140E256F73
:10081000262B2651630802E2010E266F72EC1FF0B0
:10082000010809E10101140E256F2607010E265D5E
:1008300002E2630E266F030EE66EE66A23EC1FF0FB
:10084000E552E55201080AE10101140E256F460E3A
:10085000276FF6EC12F00101410E166F000EE66EE6
:10086000E66A23EC1FF0E552E552010801E003D1EE
:1008700001012B6B140E256FF6EC12F001013C0EFA
:10088000F8D0F6EC12F0FB0EE66E430EE66EE66A6A
:10089000E66A7AEC15F0E552E552E552E55226C1DA
:1008A00010F0116A126A136A26C1E6FF11C0E6FF52
:1008B00012C0E6FF13C0E6FF0C0EE66EE66A53ECCC
:1008C00014F0146E060EE15E1450070EE66E440E30
:1008D000E66EE66A010EE66E7AEC15F0E552E55238
:1008E000E552E55201012251000803E3140E226F84
:1008F000250722072551000801E3166950EC1FF077
:10090000010809E10101140E256F262B2651630809
:1009100002E2010E266F72EC1FF0010809E10101ED
:10092000140E256F2607010E265D02E2630E266F68
:10093000030EE66EE66A23EC1FF0E552E55201086D
:100940000AE10101140E256F470E276FF6EC12F035
:100950000101410E166F000EE66EE66A23EC1FF0F1
:10096000E552E552010801E086D001012B6B140E1F
:10097000256FF6EC12F001013D0E7BD0F6EC12F083
:10098000EE0EE66E430EE66EE66AE66A7AEC15F067
:10099000E552E552E552E55226C110F0116A126A9D
:1009A000136A26C1E6FF11C0E6FF12C0E6FF13C0BE
:1009B000E6FF0D0EE66EE66A53EC14F0146E060EBA
:1009C000E15E1450070EE66E440EE66EE66A010E16
:1009D000E66E7AEC15F0E552E552E552E55201017A
:1009E0002251000803E3140E226F25072207255128
:1009F000000801E3166950EC1FF0010809E101014C
:100A0000140E256F262B2651630802E2010E266F75
:100A100072EC1FF0010809E10101140E256F260791
:100A2000010E265D02E2630E266F030EE66EE66A95
:100A300023EC1FF0E552E55201080AE10101140E12
:100A4000256F480E276FF6EC12F00101410E166F6C
:100A5000000EE66EE66A23EC1FF0E552E55201084F
:100A60000AE101012B6B140E256FF6EC12F0010167
:100A70003E0E166F1200120001011651270A02E104
:100A800007EF0DF0010A02E1BBEF0CF0030A02E1EF
:100A90006DEF0CF0750A02E128EF0CF07C0A02E120
:100AA000B0EF0BF06E0A02E110EF0BF0030A02E167
:100AB00051EF0AF07F0A02E1E1EF09F0030A02E1D7
:100AC0006CEF09F0010A01E191D3170A01E11DD38E
:100AD0001E0A01E194D2010A01E115D2070A01E1DF
:100AE00095D1010A01E11AD1180A01E1A4D0030A43
:100AF0003AE0D60A01E012002251000803E3140E86
:100B0000226F25072551000801E31669DD0EE66E08
:100B1000430EE66EE66AE66A7AEC15F0E552E552B7
:100B2000E552E552CC0EE66E430EE66EE66A010E25
:100B3000E66E7AEC15F0E552E552E552E552000E0C
:100B4000E66EE66A23EC1FF0E552E552010802E08A
:100B50005EEF0DF00101140E256FF6EC12F00101AD
:100B6000290EAEEF0BF02251000803E3140E226FA2
:100B700025072551000801E316692207BF0EE66E1E
:100B8000430EE66EE66AE66A7AEC15F0E552E55247
:100B9000E552E552B60EE66E430EE66E060EE66EC2
:100BA000010EE66E7AEC15F0E552E552E552E5529B
:100BB000B40EE66E430EE66E0F0EE66EE66A7AEC53
:100BC00015F0E552E552E552E552010EE66EE66A91
:100BD00023EC1FF0E552E552010808E10101140E73
:100BE000256FF6EC12F001012C0E166F020EE66E68
:100BF000E66A23EC1FF0E552E552010808E1010125
:100C0000140E256FF6EC12F001012A0E166F030E7A
:100C1000E66EE66A23EC1FF0E552E552010802E0B9
:100C20005EEF0DF00101140E256FF6EC12F00101DC
:100C300016696AEF0CF02251000803E3140E226FCC
:100C400025072551000801E316692207BF0EE66E4D
:100C5000430EE66EE66AE66A7AEC15F0E552E55276
:100C6000E552E552B60EE66E430EE66E060EE66EF1
:100C7000010EE66E7AEC15F0E552E552E552E552CA
:100C8000B40EE66E430EE66E0F0EE66E010EE66ED5
:100C90007AEC15F0E552E552E552E552010EE66EAA
:100CA000E66A23EC1FF0E552E552010808E1010174
:100CB000140E256FF6EC12F00101290E166F020ECC
:100CC000E66EE66A23EC1FF0E552E552010808E102
:100CD0000101140E256FF6EC12F001012B0E166FB8
:100CE000030EE66EE66A23EC1FF0E552E5520108BA
:100CF00008E10101140E256FF6EC12F00101320E2D
:100D0000166F000EE66EE66A23EC1FF0E552E55220
:100D1000010802E05EEF0DF024EF0CF02251000814
:100D200003E3140E226F25072551000803E3010E8B
:100D3000176F16692207A50EE66E430EE66EE66A89
:100D4000E66A7AEC15F0E552E552E552E5529E0E60
:100D5000E66E430EE66E080EE66E010EE66E7AEC67
:100D600015F0E552E552E552E552B40EE66E430E3B
:100D7000E66E0F0EE66EE66A7AEC15F0E552E55285
:100D8000E552E552010EE66EE66A23EC1FF0E552ED
:100D9000E552010808E10101140E256FF6EC12F08E
:100DA0000101350E166F020EE66EE66A23EC1FF0A7
:100DB000E552E552010808E10101140E256FF6EC39
:100DC00012F00101330E166F030EE66EE66A23EC95
:100DD0001FF0E552E552010808E10101140E256FEC
:100DE000F6EC12F001010A0E166F000EE66EE66ACE
:100DF00023EC1FF0E552E552010801E083D1010127
:100E0000285101E07FD1010E176F75D122510008E2
:100E100003E3140E226F25072551000804E3020E98
:100E2000176F216B16692207A50EE66E430EE66E5C
:100E3000E66AE66A7AEC15F0E552E552E552E552CB
:100E40009E0EE66E430EE66E080EE66E010EE66E30
:100E50007AEC15F0E552E552E552E552B40EE66E35
:100E6000430EE66E0F0EE66E010EE66E7AEC15F09E
:100E7000E552E552E552E552010EE66EE66A23ECD4
:100E80001FF0E552E552010808E10101140E256F3B
:100E9000F6EC12F00101320E166F020EE66EE66AF3
:100EA00023EC1FF0E552E552010808E10101140EA0
:100EB000256FF6EC12F00101340E166F030EE66E8C
:100EC000E66A23EC1FF0E552E55201080CE101014E
:100ED000140E256F13EC20F03FEC20F0F6EC12F02E
:100EE00001010C0E166F000EE66EE66A23EC1FF091
:100EF000E552E552010801E005D10101285101E068
:100F000001D1020EF6D02251000803E3140E226F25
:100F100025072551000804E3030E176F216B16699E
:100F200022078F0EE66E430EE66EE66AE66A7AECFC
:100F300015F0E552E552E552E552880EE66E430E95
:100F4000E66E080EE66E010EE66E7AEC15F0E552DE
:100F5000E552E552E552B40EE66E430EE66E0F0E14
:100F6000E66EE66A7AEC15F0E552E552E552E55296
:100F7000010EE66EE66A23EC1FF0E552E552010829
:100F800008E10101140E256FF6EC12F00101330E99
:100F9000166F020EE66EE66A23EC1FF0E552E5528C
:100FA000010808E10101140E256FF6EC12F00101B1
:100FB000350E166F030EE66EE66A23EC1FF0E5525F
:100FC000E55201080CE10101140E256F29EC20F017
:100FD00034EC20F0F6EC12F001010D0E166F000E4D
:100FE000E66EE66A23EC1FF0E552E552010801E0E7
:100FF00089D00101285101E085D0030E7AD0225119
:10100000000803E3140E226F25072551000804E3AE
:10101000040E176F216B166922078F0EE66E430EC2
:10102000E66EE66AE66A7AEC15F0E552E552E552BC
:10103000E552880EE66E430EE66E080EE66E010E71
:10104000E66E7AEC15F0E552E552E552E552B40E43
:10105000E66E430EE66E0F0EE66E010EE66E7AEC5D
:1010600015F0E552E552E552E552010EE66EE66AEC
:1010700023EC1FF0E552E552010808E10101140ECE
:10108000256FF6EC12F00101340E166F020EE66EBB
:10109000E66A23EC1FF0E552E552010808E1010180
:1010A000140E256FF6EC12F00101320E166F030ECE
:1010B000E66EE66A23EC1FF0E552E55201080CE10A
:1010C0000101140E256F1EEC20F034EC20F0F6EC3C
:1010D00012F001010E0E166F000EE66EE66A23ECAA
:1010E0001FF0E552E55201080DE1010128510AE126
:1010F000040E176F216B140E256FF6EC12F0010130
:101100002A0E2CD30101286B12002251000803E3A0
:10111000140E226F25072551000801E316692207E6
:10112000780EE66E430EE66EE66AE66A7AEC15F035
:10113000E552E552E552E552710EE66E430EE66E5B
:10114000060EE66E010EE66E7AEC15F0E552E552FB
:10115000E552E552B40EE66E430EE66E0F0EE66EF5
:10116000E66A7AEC15F0E552E552E552E552010ED9
:10117000E66EE66A23EC1FF0E552E552010808E14D
:101180000101140E256FF6EC12F001012A0E166F04
:10119000020EE66EE66A23EC1FF0E552E552010806
:1011A00008E10101140E256FF6EC12F001012C0E7E
:1011B000166F030EE66EE66A23EC1FF0E552E55269
:1011C000010808E10101140E256FF6EC12F001018F
:1011D0003C0E166F000EE66EE66A23EC1FF0E55239
:1011E000E552010802E05EEF0DF02ED32251000817
:1011F00003E3140E226F25072551000801E3166949
:101200002207660EE66E430EE66EE66AE66A7AEC42
:1012100015F0E552E552E552E5525E0EE66E430EDC
:10122000E66E050EE66E010EE66E7AEC15F0E552FE
:10123000E552E552E552B40EE66E430EE66E0F0E31
:10124000E66EE66A7AEC15F0E552E552E552E552B3
:10125000010EE66EE66A23EC1FF0E552E552010846
:1012600008E10101140E256FF6EC12F001013E0EAB
:10127000166F020EE66EE66A23EC1FF0E552E552A9
:10128000010808E10101140E256FF6EC12F00101CE
:101290003D0E166F030EE66EE66A23EC1FF0E55274
:1012A000E55201080AE10101140E256F460E276F71
:1012B000F6EC12F00101140E166F000EE66EE66AEF
:1012C00023EC1FF0E552E552010801E0E6D00101F0
:1012D0002B0501E0E2D0DAD02251000803E3140E1E
:1012E000226F25072551000801E316692207660EC3
:1012F000E66E430EE66EE66AE66A7AEC15F0E552B3
:10130000E552E552E5525E0EE66E430EE66E050EC0
:10131000E66E010EE66E7AEC15F0E552E552E55206
:10132000E552B40EE66E430EE66E0F0EE66E010E4B
:10133000E66E7AEC15F0E552E552E552E552010E03
:10134000E66EE66A23EC1FF0E552E552010808E17B
:101350000101140E256FF6EC12F001013C0E166F20
:10136000020EE66EE66A23EC1FF0E552E552010834
:1013700008E10101140E256FF6EC12F001013E0E9A
:10138000166F030EE66EE66A23EC1FF0E552E55297
:1013900001080AE10101140E256FF6EC12F019C1E3
:1013A00026F10101160E166F000EE66EE66A23ECBA
:1013B0001FF0E552E552010870E101012B056DE1D6
:1013C00065D02251000803E3140E226F2507255132
:1013D000000801E316692207500EE66E430EE66E22
:1013E000E66AE66A7AEC15F0E552E552E552E55216
:1013F000B40EE66E430EE66E0F0EE66EE66A7AEC0B
:1014000015F0E552E552E552E552010EE66EE66A48
:1014100023EC1FF0E552E552010808E10101140E2A
:10142000256FF6EC12F001013D0E166F020EE66E0E
:10143000E66A23EC1FF0E552E552010808E10101DC
:10144000140E256FF6EC12F001013C0E166F030E20
:10145000E66EE66A23EC1FF0E552E55201080AE168
:101460000101140E256FF6EC12F01AC126F10101EC
:10147000170E166F000EE66EE66A23EC1FF0E552BB
:10148000E55201080AE101012B0507E1140E256F61
:10149000F6EC12F001012B0E61D10101010E2B6F50
:1014A00012002251000803E3140E226F2507255174
:1014B000000801E316692207410EE66E430EE66E50
:1014C000E66AE66A7AEC15F0E552E552E552E55235
:1014D0003E0EE66E430EE66E0B0EE66E010EE66EF7
:1014E0007AEC15F0E552E552E552E552B40EE66E9F
:1014F000430EE66E0F0EE66EE66A7AEC15F0E552E4
:10150000E552E552E552010EE66EE66A23EC1FF065
:10151000E552E552010808E10101140E256FF6ECD1
:1015200012F00101420E166F020EE66EE66A23EC1F
:101530001FF0E552E552010808E10101140E256F84
:10154000F6EC12F00101420E166F48EC1FF0010894
:101550000DE1460E0101275D09E1140E256FF6EC41
:1015600012F026C11EF101013C0E166F48EC1FF06F
:1015700001080DE1470E0101275D09E1140E256FF9
:10158000F6EC12F026C11DF101013D0E166F48EC7C
:101590001FF001080DE1480E0101275D09E1140E5D
:1015A000256FF6EC12F026C11FF101013E0E166FF9
:1015B000000EE66EE66A23EC1FF0E552E5520108E4
:1015C0000BE1460E0101275D07E1140E256FF6ECD5
:1015D00012F001013C0E166F000EE66EE66A23EC77
:1015E0001FF0E552E55201080BE1470E0101275DAE
:1015F00007E1140E256FF6EC12F001013D0E166F97
:10160000000EE66EE66A23EC1FF0E552E552010893
:1016100001E054D2480E0101275D01E04FD298D07D
:101620002251000803E3140E226F250725510008FC
:1016300001E316692207410EE66E430EE66EE66A86
:10164000E66A7AEC15F0E552E552E552E5523E0EB7
:10165000E66E430EE66E0B0EE66E010EE66E7AEC5B
:1016600015F0E552E552E552E552B40EE66E430E32
:10167000E66E0F0EE66E010EE66E7AEC15F0E552A0
:10168000E552E552E552010EE66EE66A23EC1FF0E4
:10169000E552E552010808E10101140E256FF6EC50
:1016A00012F00101410E166F020EE66EE66A23EC9F
:1016B0001FF0E552E552010808E10101140E256F03
:1016C000F6EC12F00101410E166F48EC1FF0010814
:1016D00008E10101140E256FF6EC12F001013C0E39
:1016E000166F000EE66EE66A23EC1FF0E552E55237
:1016F00001080BE1460E0101275D07E1140E256F7D
:10170000F6EC12F001013C0E166F000EE66EE66A72
:1017100023EC1FF0E552E55201080BE1470E0101F1
:10172000275D07E1140E256FF6EC12F001013D0E66
:10173000166F000EE66EE66A23EC1FF0E552E552E6
:10174000010801E0BBD1480E0101275D01E0B6D1DF
:10175000140E256FF6EC12F001013E0E166F12000A
:101760002251000803E3140E226F250725510008BB
:1017700001E316692207780EE66E430EE66EE66A0E
:10178000E66A7AEC15F0E552E552E552E552710E43
:10179000E66E430EE66E060EE66E010EE66E7AEC1F
:1017A00015F0E552E552E552E552B40EE66E430EF1
:1017B000E66E0F0EE66E010EE66E7AEC15F0E5525F
:1017C000E552E552E552010EE66EE66A23EC1FF0A3
:1017D000E552E552010808E10101140E256FF6EC0F
:1017E00012F001012B0E166F020EE66EE66A23EC74
:1017F0001FF0E552E552010808E10101140E256FC2
:10180000F6EC12F00101290E166F030EE66EE66A81
:1018100023EC1FF0E552E55201080CE1DFEC1FF06C
:101820000101140E256FF6EC12F00101500E166F37
:10183000060E176F000EE66EE66A23EC1FF0E55207
:10184000E552010801E03AD10101140E256F2DD1B6
:101850002251000805E3FDEC1FF00101140E226F78
:101860002207640EE66EE66A2EEC19F0E552E552A8
:10187000640EE66EE66A97EC19F0E552E5522E0E1C
:10188000E66E430EE66EE66AE66A7AEC15F0E5521D
:10189000E552E552E552CC0EE66E430EE66EE66A80
:1018A000010EE66E7AEC15F0E552E552E552E5528E
:1018B000000EE66EE66A23EC1FF0E552E5520108E1
:1018C00001E0FCD00101140E256FF6EC12F00101CD
:1018D0002C0E166F010E176F12002251000803E341
:1018E000140E226F250722072551000805E3010188
:1018F000220E7E6F010116691F0EE66E430EE66E24
:10190000E66AE66A7AEC15F0E552E552E552E552F0
:10191000150EE66E430EE66EE66A010EE66E7AEC92
:1019200015F0E552E552E552E5521EC110F0116A7C
:10193000126A136A1EC1E6FF11C0E6FF12C0E6FF7D
:1019400013C0E6FF0A0EE66E010EE66E53EC14F0CD
:10195000146E060EE15E1450000EE66EE66A23EC8D
:101960001FF0E552E552010801E0A4D001012A056B
:1019700001E0A0D097D02251000803E3140E226F9B
:10198000250722072551000805E30101220E7E6F7D
:10199000010116691F0EE66E430EE66EE66AE66A00
:1019A0007AEC15F0E552E552E552E552080EE66E86
:1019B000430EE66EE66A010EE66E7AEC15F0E5522D
:1019C000E552E552E5521DC110F0116A126A136A20
:1019D0001DC1E6FF11C0E6FF12C0E6FF13C0E6FF1F
:1019E0000C0EE66E010EE66E53EC14F0146E060E4D
:1019F000E15E1450000EE66EE66A23EC1FF0E5523D
:101A0000E552010857E101012A0554E14BD022516A
:101A1000000803E3140E226F250722072551000852
:101A200005E30101220E7E6F010116691F0EE66EAD
:101A3000430EE66EE66AE66A7AEC15F0E552E55288
:101A4000E552E552FA0EE66E420EE66EE66A010EC9
:101A5000E66E7AEC15F0E552E552E552E5521FC10B
:101A600010F0116A126A136A1FC1E6FF11C0E6FF87
:101A700012C0E6FF13C0E6FF0D0EE66E010EE66E25
:101A800053EC14F0146E060EE15E1450000EE66E78
:101A9000E66A23EC1FF0E552E55201080BE1010173
:101AA0002A0508E10101220E7E6FF6EC12F0010119
:101AB000166912000101010E2A6F120012000101C5
:101AC0007E51C80A01E10BD1010A01E105D19B0A4F
:101AD00001E1DBD0030A01E1AED06A0A67E0140A33
:101AE00034E01B0A01E012000101780501E00CD18D
:101AF000786B520E0001815D01E006D1300E835DEE
:101B0000106E300E825D0A0DF350102401011E6F1D
:101B1000F6EC12F00101020E256F250E166F010181
:101B2000220E7E6FDB0EE66E420EE66E17EC1BF0A9
:101B3000E552E552C70EE66E420EE66E17EC1BF05C
:101B4000E552E5521EC110F061D00101780501E0B7
:101B5000DBD0786B470E0001815D01E0D5D0300EFF
:101B6000835D106E300E825D0A0DF350102401016A
:101B70001D6F020E256FF6EC12F00101260E166F96
:101B80000101220E7E6FDB0EE66E420EE66E17EC52
:101B90001BF0E552E552A10EE66E420EE66E17EC22
:101BA0001BF0E552E5521DC110F030D0010178055F
:101BB00001E0AAD0786B590E0001815D01E0A4D04C
:101BC000300E835D106E300E825D0A0DF3501024CE
:101BD00001011F6F020E256FF6EC12F00101270EB6
:101BE000166F0101220E7E6FDB0EE66E420EE66E70
:101BF00017EC1BF0E552E5528A0EE66E420EE66ED9
:101C000017EC1BF0E552E5521FC110F0116A126A81
:101C1000136A10C0E6FF11C0E6FF12C0E6FF13C052
:101C2000E6FFAEEC1BF0E552E552E552E552BA0E86
:101C3000E66E420E5BD00101780566E1786B530ECB
:101C40000001815D61E14C0E825D5EE14F0E835DBE
:101C50005BE1DFEC1FF00101140E256FF6EC12F0D2
:101C60000101500E166F0101220E7E6F0101060E5A
:101C7000176FDB0EE66E420EE66E17EC1BF0E552B8
:101C8000E552730EE66E420E31D0010178053CE15B
:101C9000786B410E0001815D37E1540E825D34E1C5
:101CA0004F0E835D31E10101140E256FF6EC12F049
:101CB000010116690101220E7E6F0101010E176FED
:101CC000DB0EE66E420EE66E17EC1BF0E552E552B7
:101CD000570EE66E420E0AD0C80E7E6F120001014A
:101CE000780512E1786B340EE66E420EE66E17EC64
:101CF0001BF0E552E552B70EE66E420EE66E17ECAB
:0A1D00001BF0E552E552120012003C
:061D0A00D9CFE6FFE1CF96
:101D1000D9FF040EE126DE6ADD6ADECF10F0DDCFEA
:101D200011F0126A136A11AE02D012681368D9500A
:101D3000FB0FE96EFF0EDA20EA6EEE50105CEE50FB
:101D40001158EE501258EE5013581DE2020EDB6A85
:101D5000030EDB6A020EDBCF10F0030EDBCF11F0B7
:101D6000D890115004E6050E105C000E115806E2E2
:101D7000020EDB2A030EEEE3DB2AECD7DF2A010E8C
:101D8000CCE3DB2ACAD7040EE15C02E2E16AE55249
:101D9000E16EE552E7CFD9FF1200D9CFE6FFE1CFE0
:101DA000D9FF040EE126DE6ADD6ADECF10F0DDCF5A
:101DB00011F0126A136A11AE02D012681368D9507A
:101DC000FB0FE96EFF0EDA20EA6EEE50105CEE506B
:101DD0001158EE501258EE5013581DE2020EDB6AF5
:101DE000030EDB6A020EDBCF10F0030EDBCF11F027
:101DF000D890115004E6EE0E105C000E115806E269
:101E0000020EDB2A030EEEE3DB2AECD7DF2A010EFB
:101E1000CCE3DB2ACAD7040EE15C02E2E16AE552B8
:101E2000E16EE552E7CFD9FF1200D9CFE6FFE1CF4F
:101E3000D9FF0F0E8116FE0EDB50F00B811281864A
:101E4000010EE66EE66AE66AE66AA7DFE552E5524B
:101E5000E552E5528196010EE66EE66AE66AE66AAA
:101E60009CDFE552E552E552E5520F0E8116FE0E5B
:101E7000DB38F00B81128186010EE66EE66AE66AB7
:101E8000E66A8BDFE552E552E552E5528196010E96
:101E9000E66EE66AE66AE66A80DFE552E552E552FA
:101EA000E552E552E7CFD9FF1200D9CFE6FFE1CFE7
:101EB000D9FFE652936A190EE66EE66AE66AE66AAA
:101EC0006CDFE552E552E552E5520F0E8116F80E31
:101ED00081160F0E8116300E81128186010EE66E7C
:101EE000E66AE66AE66A59DFE552E552E552E552EE
:101EF0008196010EE66EE66AE66AE66A4EDFE55214
:101F0000E552E552E5520F0E8116300E81128186A0
:101F1000010EE66EE66AE66AE66A3FDFE552E552E2
:101F2000E552E5528196010EE66EE66AE66AE66AD9
:101F300034DFE552E552E552E5520F0E8116300EC0
:101F400081128186010EE66EE66AE66AE66A25DFA0
:101F5000E552E552E552E5528196010EE66EE66ADB
:101F6000E66AE66A1ADFE552E552E552E5520F0EDF
:101F70008116818A8186010EE66EE66AE66AE66A65
:101F80000CDFE552E552E552E5528196010EE66E10
:101F9000E66AE66AE66A01DFE552E552E552E55295
:101FA000280EE66E42DFE5520C0EE66E3EDFE5528D
:101FB000E552E552E7CFD9FF1200D9CFE6FFE1CFD6
:101FC000D9FF020EE126DF6A010EDB6A81940F0E53
:101FD000E66EE66AE66AE66A98DEE552E552E552A2
:101FE000E5520F0E81128186E66EE66AE66AE66ABF
:101FF0008CDEE552E552E552E5520F0E8114E76E94
:10200000010EE7CFDBFF81960F0EE66EE66AE66A09
:10201000E66A7BDEE552E552E552E5520F0E81128B
:102020008186E66EE66AE66AE66A6FDEE552E552AA
:10203000E552E5520F0E8114DF6E010EDB50DF1208
:102040008196010EE66EE66AE66AE66A5EDEE552B3
:10205000E552E552E552DF50106E020EE15C02E2FD
:10206000E16AE552E16E1050E552E7CFD9FF120068
:10207000D9CFE6FFE1CFD9FFE652DF6A9EDFDF6E00
:10208000DFBEFCD7DF50E552E552E7CFD9FF1200A3
:10209000D9CFE6FFE1CFD9FF0F0E8116FE0EDB5040
:1020A00081128186050EE66EE66AE66AE66A2DDE34
:1020B000E552E552E552E5528196050EE66EE66A76
:1020C000E66AE66A22DEE552E552E552E552E5525D
:1020D000E7CFD9FF1200D9CFE6FFE1CFD9FF819436
:1020E000050EE66EE66AE66AE66A0FDEE552E5523E
:1020F000E552E552FE0EDBCFE6FFCADFE552FE0EEB
:10210000DB38F00BE66EC4DFE552E552E7CFD9FFCE
:102110001200D9CFE6FFE1CFD9FF8184050EE66E2C
:10212000E66AE66AE66AF1DDE552E552E552E55215
:10213000FE0EDBCFE6FFACDFE552FE0EDB38F00B28
:10214000E66EA6DFE5528194E552E7CFD9FF120093
:10215000D9CFE6FFE1CFD9FFFE0EDBCFE6FFD9DF17
:10216000E552E552E7CFD9FF1200D9CFE6FFE1CF24
:10217000D9FFFE0EDBCFE6FFCCDFE552E552E7CF1D
:10218000D9FF1200D9CFE6FFE1CFD9FFFD0EDBCF9B
:10219000F6FFFE0EDBCFF7FF0800F5500FE0FD0E57
:1021A000DBCFF6FFDB2AFE0EDBCFF7FF01E3DB2AF6
:1021B0000800F550E66ED9DFE552E8D7E552E7CFE3
:1021C000D9FF1200D9CFE6FFE1CFD9FFE652FD0ECD
:1021D000DB500F0B106EFE0EDB50010B400DF35069
:1021E0001024DF6E7F0EDF14800FDF6EDFCFE6FF7F
:1021F00072DFE552E552E552E7CFD9FF1200010E3A
:10220000E66E69DFE552E66AE66ADCDFE552E55232
:102210001200D9CFE6FFE1CFD9FF050EE126010E6E
:10222000F36EDB6E020EDB6A030EDB6A040EDB6A02
:10223000DF6ADFCF10F0116A10BE1168FB0EDBCF32
:1022400012F0FC0EDBCF13F011501318E8AE02D0E1
:10225000133404D01250105C135011582DE2FD0EAF
:10226000DBCF10F0FE0EDBCF11F0126A136A11AE55
:1022700002D012681368D950010FE96EDACFEAFF75
:1022800010C00BF011C00CF012C00DF013C00EF016
:10229000EECF06F0EECF07F0EECF08F0EFCF09F06B
:1022A00094EC24F005C0EDFF04C0EDFF03C0EDFF8A
:1022B00002C0EFFFDF2ABDD7010EDBCF10F0020E08
:1022C000DBCF11F0030EDBCF12F0040EDBCF13F0E7
:1022D00010C006F011C007F012C008F013C009F0DA
:1022E000050EE15C02E2E16AE552E16EE552E7CFFC
:1022F000D9FF1200D9CFE6FFE1CFD9FF020EE126C8
:10230000DF6AFB0EDBCF10F0FC0EDBCF11F0FD0E11
:10231000DBCF12F0FE0EDBCF13F0105011101210B5
:10232000131005E1300EE66E20DFE552F4D0D950EF
:10233000FB0FE96EFF0EDA20EA6ED890030EEB5029
:10234000000A08E6000EEE5C000EEE58000EEE5895
:10235000000EEE5815E22D0EE66E07DFE552D9505D
:10236000FB0FE96EFF0EDA20EA6E000EEE6CEF1E38
:10237000EE22EF1EEE22EF1EEF22ED52ED52ED5255
:10238000DE52070EDD6E010EDBCF10F0000EE76EA1
:102390001018E8AE02D0103403D0E750D8801054A3
:1023A00001E3B9D0010EDB04146E156A14BE156882
:1023B00014C0E6FF15C0E6FF0A0EE66EE66A29DFE6
:1023C000E552E552E552E55206C010F007C011F0A3
:1023D00008C012F009C013F006C00BF007C00CF0E3
:1023E00008C00DF009C00EF0FB0EDBCF06F0FC0EAE
:1023F000DBCF07F0FD0EDBCF08F0FE0EDBCF09F0E0
:10240000CCEC24F0065007100810091041E0010E32
:10241000DF6EDB04186E196A18BE196818C0E6FF73
:1024200019C0E6FF0A0EE66EE66AF3DEE552E552F3
:10243000E552E55206C014F007C015F008C016F0CA
:1024400009C017F006C00BF007C00CF008C00DF073
:1024500009C00EF0FB0EDBCF06F0FC0EDBCF07F061
:10246000FD0EDBCF08F0FE0EDBCF09F0CCEC24F044
:1024700006C010F007C011F008C012F009C013F038
:10248000300E1026000E112212221322105003D0FB
:10249000DF5004E0300EE66E68DEE552010EDB042C
:1024A000146E156A14BE156814C0E6FF15C0E6FF69
:1024B0000A0EE66EE66AADDEE552E552E552E552F9
:1024C00006C010F007C011F008C012F009C013F0E8
:1024D000D950FB0FE96EFF0EDA20EA6E06C00BF052
:1024E00007C00CF008C00DF009C00EF0EECF06F0EA
:1024F000EECF07F0EECF08F0EFCF09F0CCEC24F0F0
:1025000005C0EDFF04C0EDFF03C0EDFF02C0EFFF0B
:10251000010EDB0638D7020EE15C02E2E16AE55209
:10252000E16EE552E7CFD9FF1200D9CFE6FFE1CF48
:10253000D9FFFD0EDBCFE6FFFE0EDBCFE6FF42DE6E
:10254000E552E552D950F90FE96EFF0EDA20EA6E36
:10255000EECFE6FFEECFE6FFEECFE6FFEFCFE6FFF2
:10256000C9DEE552E552E552E552E552E7CFD9FF23
:102570001200D9CFE6FFE1CFD9FFFD0EDBCFE6FF9A
:10258000FE0EDBCFE6FF1EDEE552E552FB0EDBCF93
:10259000E6FFFC0EDBCFE6FFF5DDE552E552E55246
:1025A000E7CFD9FF1200D9CFE6FFE1CFD9FF7BCF2C
:1025B00010F07CCF11F0040ED89010361136E806DA
:1025C000FBE1410E10260F0E112210500F017D2548
:1025D000E96E11507E21EA6EFE0EDBCFEFFF7D2B00
:1025E000000E7E23E552E7CFD9FF1200D9CFE6FFD8
:1025F000E1CFD9FFE652DF6ADFCF10F0100EE76EB1
:102600001018E8AE02D0E73402D0E750105C18E2B0
:10261000DFCFE9FFEA6AE9BEEA68410EE9260F0E5C
:10262000EA22200EEF6EDFCFE9FFEA6AE9BEEA6830
:10263000510EE9260F0EEA22200EEF6EDF2ADCD7BC
:10264000E552E552E7CFD9FF1200D9CFE6FFE1CF3F
:10265000D9FFE6520F014051030A52E0010A36E069
:10266000030A1AE0010A67E1E66AE66AABDDE552B1
:10267000E552DF6A080EDF5C0CE2DF50EA6A410FC8
:10268000E96E0F0EEA22EF50E66E6FDDE552DF2AAB
:10269000F1D70F01010E32D0080EE66EE66A92DD28
:1026A000E552E552DF6A080EDF5C0DE2080EDF241A
:1026B000EA6A410FE96E0F0EEA22EF50E66E55DD31
:1026C000E552DF2AF0D70F01020E18D0E66A010E9C
:1026D000E66E78DDE552E552DF6A080EDF5C0CE25B
:1026E000DF50EA6A510FE96E0F0EEA22EF50E66EF4
:1026F0003CDDE552DF2AF1D70F01030E406F1CD0FD
:10270000080EE66E010EE66E5DDDE552E552DF6A0B
:10271000080EDF5C0DE2080EDF24EA6A510FE96E55
:102720000F0EEA22EF50E66E20DDE552DF2AF0D7E9
:102730000F01406B01D0406BE552E552E7CFD9FF66
:102740001200D9CFE6FFE1CFD9FFE6520F01405189
:10275000010A1BE0010A32E1E66AE66A33DDE5526E
:10276000E552DF6A100EDF5C0CE2DF50EA6A410FCF
:10277000E96E0F0EEA22EF50E66EF7DCE552DF2A33
:10278000F1D70F01010E406F1AD0E66A010EE66E16
:1027900019DDE552E552DF6A100EDF5C0CE2DF5016
:1027A000EA6A510FE96E0F0EEA22EF50E66EDDDCA9
:1027B000E552DF2AF1D70F01406B01D0406BE552A3
:1027C000E552E7CFD9FF1200D9CFE6FFE1CFD9FF1D
:1027D000E652E66AE66AF6DCE552E552DF6A100E7A
:1027E000DF5C0CE2DF50EA6A410FE96E0F0EEA226D
:1027F000EF50E66EBADCE552DF2AF1D7E66A010E49
:10280000E66EE0DCE552E552DF6A100EDF5C0CE2BA
:10281000DF50EA6A510FE96E0F0EEA22EF50E66EC2
:10282000A4DCE552DF2AF1D7E552E552E7CFD9FF24
:102830001200D9CFE6FFE1CFD9FFFE0EDB50010B2E
:102840000F017B6F7C6BFD0EDB500F0B7D6F7E6B82
:10285000FC0EDB500A0802E1610E05D0FC0EDB50D5
:102860000D0805E1640EF36EFC0EF3CFDBFF7BCFAA
:1028700010F07CCF11F0040ED89010361136E80617
:10288000FBE1410E10260F0E112210500F017D2585
:10289000E96E11507E21EA6EFC0EDBCFEFFFE552B0
:1028A000E7CFD9FF1200D9CFE6FFE1CFD9FF020E63
:1028B000E126DF6AFE0EDB50010B0F017B6F7C6BA4
:1028C000FD0EDB500F0B7D6F7E6BF90EDBCF10F032
:1028D000FA0EDBCF11F0FB0EDBCF12F0FC0EDBCFDC
:1028E00013F0105011101210131005E1300EE66EA7
:1028F0005ADEE552F5D0D950F90FE96EFF0EDA2015
:10290000EA6ED890030EEB50000A08E6000EEE5C6B
:10291000000EEE58000EEE58000EEE5815E22D0E89
:10292000E66E41DEE552D950F90FE96EFF0EDA206E
:10293000EA6E000EEE6CEF1EEE22EF1EEE22EF1E90
:10294000EF22ED52ED52ED52DE52070EDD6E010E1A
:10295000DBCF10F0000EE76E1018E8AE02D0103496
:1029600003D0E750D880105401E3BAD0010EDB0445
:10297000146E156A14BE156814C0E6FF15C0E6FF94
:102980000A0EE66EE66A45DCE552E552E552E5528E
:1029900006C010F007C011F008C012F009C013F013
:1029A00006C00BF007C00CF008C00DF009C00EF017
:1029B000F90EDBCF06F0FA0EDBCF07F0FB0EDBCF14
:1029C00008F0FC0EDBCF09F0CCEC24F00650071029
:1029D0000810091041E0010EDF6EDB04186E196A61
:1029E00018BE196818C0E6FF19C0E6FF0A0EE66EA9
:1029F000E66A0FDCE552E552E552E55206C014F0F6
:102A000007C015F008C016F009C017F006C00BF09B
:102A100007C00CF008C00DF009C00EF0F90EDBCFB6
:102A200006F0FA0EDBCF07F0FB0EDBCF08F0FC0E52
:102A3000DBCF09F0CCEC24F006C010F007C011F099
:102A400008C012F009C013F0300E1026000E11223B
:102A500012221322105003D0DF5004E0300EE66E35
:102A6000A2DDE552010EDB04146E156A14BE156872
:102A700014C0E6FF15C0E6FF0A0EE66EE66A09EC32
:102A800011F0E552E552E552E55206C010F007C0DC
:102A900011F008C012F009C013F0D950F90FE96E17
:102AA000FF0EDA20EA6E06C00BF007C00CF008C07B
:102AB0000DF009C00EF0EECF06F0EECF07F0EECF2E
:102AC00008F0EFCF09F0CCEC24F005C0EDFF04C016
:102AD000EDFF03C0EDFF02C0EFFF010EDB0637D7AD
:102AE000020EE15C02E2E16AE552E16EE552E7CFF7
:102AF000D9FF1200D9CFE6FFE1CFD9FFFE0EDB50A0
:102B0000010B0F017B6F7C6BFD0EDB500F0B7D6F9C
:102B10007E6BFB0EDBCFF6FFFC0EDBCFF7FF080072
:102B2000F5500FE0FB0EDBCFF6FFDB2AFC0EDBCF10
:102B3000F7FF01E3DB2A0800F550E66E34DDE552CD
:0A2B4000E8D7E552E7CFD9FF1200F5
:062B4A00D9CFE6FFE1CF48
:102B5000D9FFD59EFD0EDBCF55F1FE0EDBCF56F132
:102B6000D59C13681468156A55C116F056C117F044
:102B7000186A1650135C106E17501458116E1850C6
:102B80001558126E0C6A010E0D6E0E6A10C007F019
:102B900011C008F012C009F0D0EC23F00350D66E3B
:102BA00013681468156A55C116F056C117F0186AF3
:102BB0001650135C106E17501458116E185015589B
:102BC000126E0C6A010E0D6E0E6A10C007F011C075
:102BD00008F012C009F0D0EC23F007C010F008C0D4
:102BE00011F009C012F00750D76ED59AD586F28A37
:102BF000F294F184D58EE552E7CFD9FF1200D59E2D
:102C0000120013681468156A55C116F056C117F002
:102C1000186A1650135C106E17501458116E185025
:102C20001558126E0C6A010E0D6E0E6A10C007F078
:102C300011C008F012C009F0D0EC23F00350D66E9A
:102C400013681468156A55C116F056C117F0186A52
:102C50001650135C106E17501458116E18501558FA
:102C6000126E0C6A010E0D6E0E6A10C007F011C0D4
:102C700008F012C009F0D0EC23F007C010F008C033
:102C800011F009C012F00750D76ED58E1200D9CFBF
:102C9000E6FFE1CFD9FFCD90FD0EDBCF57F1FE0E61
:102CA000DBCF58F113681468156A57C116F058C184
:102CB00017F0186A1650135C106E17501458116EE6
:102CC00018501558126E0C6A010E0D6E0E6A10C067
:102CD00007F011C008F012C009F0D0EC23F0075043
:102CE000CF6E13681468156A57C116F058C117F0F3
:102CF000186A1650135C106E17501458116E185045
:102D00001558126E0C6A010E0D6E0E6A10C007F097
:102D100011C008F012C009F0D0EC23F003C010F08D
:102D200004C011F005C012F00350CE6E9D809E903D
:102D30009F90CD8ECD8CCD98CD9ACD96CD92CD80D5
:102D4000E552E7CFD9FF120013681468156A57C11E
:102D500016F058C117F0186A1650135C106E175011
:102D60001458116E18501558126E0C6A010E0D6E23
:102D70000E6A10C007F011C008F012C009F0D0ECC4
:102D800023F00750CF6E13681468156A57C116F008
:102D900058C117F0186A1650135C106E175014586B
:102DA000116E18501558126E0C6A010E0D6E0E6AD7
:102DB00010C007F011C008F012C009F0D0EC23F0E9
:102DC00003C010F004C011F005C012F00350CE6E25
:102DD000CD801200CD901200D9CFE6FFE1CFD9FF10
:102DE000CA94CC6AFE0EDB500101596F5A6BCB6E50
:102DF0009D829E929F92CA90CA92CA84E552E7CF62
:102E0000D9FF120059C1CBFFCA841200CA94120024
:102E1000D9CFE6FFE1CFD9FFB190FD0EDBCF5BF15B
:102E2000FE0EDBCF5CF113681468156A5BC116F007
:102E30005CC117F0186A1650135C106E17501458C6
:102E4000116E18501558126E0C6A010E0D6E0E6A36
:102E500010C007F011C008F012C009F0D0EC23F048
:102E60000750B36E13681468156A5BC116F05CC135
:102E700017F0186A1650135C106E17501458116E24
:102E800018501558126E0C6A010E0D6E0E6A10C0A5
:102E900007F011C008F012C009F0D0EC23F003C015
:102EA00010F004C011F005C012F00350B26EA08201
:102EB000A192A292B18EB198B19AB192B180E5522D
:102EC000E7CFD9FF120013681468156A5BC116F0CA
:102ED0005CC117F0186A1650135C106E1750145826
:102EE000116E18501558126E0C6A010E0D6E0E6A96
:102EF00010C007F011C008F012C009F0D0EC23F0A8
:102F00000350B26E13681468156A5BC116F05CC199
:102F100017F0186A1650135C106E17501458116E83
:102F200018501558126E0C6A010E0D6E0E6A10C004
:102F300007F011C008F012C009F0D0EC23F007C070
:102F400010F008C011F009C012F00750B36EB18044
:102F50001200B19012000101652B000E66236D5125
:102F6000655D6E51665904E3656B666B010E5D6FBE
:102F700012000101672B000E68236F51675D7051CD
:102F8000685904E3676B686B010E5E6F1200010104
:102F9000692B000E6A237151695D72516A5904E30D
:102FA000696B6A6B010E5F6F120001016B2B000EE3
:102FB0006C2373516B5D74516C5904E36B6B6C6BD8
:102FC000010E606F1200D9CFE6FFE1CFD9FFFD0EF1
:102FD000DBCF6DF1FE0EDBCF6EF10101656B666B31
:102FE0005D6BE552E7CFD9FF1200D9CFE6FFE1CF05
:102FF000D9FFFD0EDBCF6FF1FE0EDBCF70F1050EBA
:103000000D6E0E6A6FC108F070C109F0AAEC23F0D2
:1030100008C06FF109C070F10101676B686B5E6BEE
:10302000E552E7CFD9FF1200D9CFE6FFE1CFD9FFB4
:10303000FD0EDBCF71F1FE0EDBCF72F1050E0D6ED2
:103040000E6A71C108F072C109F0AAEC23F008C041
:1030500071F109C072F10101696B6A6B5F6BE55236
:10306000E7CFD9FF1200D9CFE6FFE1CFD9FFFD0EA0
:10307000DBCF73F1FE0EDBCF74F10A0E0D6E0E6A1C
:1030800073C108F074C109F0AAEC23F008C073F111
:1030900009C074F101016B6B6C6B606BE552E7CF9B
:0430A000D9FF120042
:0C30A400D9CFE6FFE1CFD9FF060EE126F0
:1030B000DE6ADD6AFD0EDBCFE9FFFE0EDBCFEAFF45
:1030C000D890E936EA36000EE926010EEA22040E0F
:1030D000EECFDBFF050EEDCFDBFF8396DECF10F0EA
:1030E000DDCF11F0D890115004E6080E105C000EF0
:1030F00011583CE2800EE76E040EDBCF10F0050E97
:10310000E7501016116A020E10C0DBFF030E11C04B
:10311000DBFF040EDBCF10F0050EDBCF11F0D890F3
:1031200010361136040E10C0DBFF050E11C0DBFF98
:10313000D950020FE96EDACFEAFF800EEE1801E1F6
:10314000ED5002E0000E01D0010EE8B08384E8A04B
:1031500083948386010EE66EE66AA4D9E552E552B1
:103160008396DF2A010EBAE3DB2AB8D7060EE15CAC
:1031700002E2E16AE552E16EE552E7CFD9FF1200C3
:10318000D9CFE6FFE1CFD9FF060EE126DE6ADD6A80
:10319000FD0EDBCFE9FFFE0EDBCFEAFFD890E9366C
:1031A000EA36000EE926010EEA22040EEECFDBFF1E
:1031B000050EEDCFDBFF839CDECF10F0DDCF11F0ED
:1031C000D890115004E6080E105C000E11583CE235
:1031D000800EE76E040EDBCF10F0050EE7501016E0
:1031E000116A020E10C0DBFF030E11C0DBFF040EDC
:1031F000DBCF10F0050EDBCF11F0D8901036113672
:10320000040E10C0DBFF050E11C0DBFFD950020F0A
:10321000E96EDACFEAFF800EEE1801E1ED5002E030
:10322000000E01D0010EE8B0838AE8A0839A838C57
:10323000010EE66EE66A36D9E552E552839CDF2A36
:10324000010EBAE3DB2AB8D7060EE15C02E2E16ABE
:10325000E552E16EE552E7CFD9FF1200D9CFE6FF84
:10326000E1CFD9FF040EE1260A0E106E116AFD0EA1
:10327000DBCF08F0FE0EDBCF09F010C00DF011C05F
:103280000EF0AAEC23F008C0DEFF09C0DDFFFD0E42
:10329000DBCF10F0FE0EDBCF11F00A0E0D6E0E6AC2
:1032A00010C008F011C009F0AAEC23F004C010F01F
:1032B00005C011F0020E04C0DBFF030E05C0DBFFEA
:1032C000D9CFE9FFDACFEAFFEE50ED1003E10A0EA5
:1032D000DE6EDD6AD950FD0FE96EFF0EDA20EA6E70
:1032E000640EEE180BE1ED5009E10A0EDE6EDD6AA8
:1032F000F36E020EF3CFDBFF030EDB6A020EDBCFB1
:10330000E6FF030EDBCFE6FFDECFE6FFDDCFE6FF15
:1033100077D8E552E552E552E552040EE15C02E24F
:10332000E16AE552E16EE552E7CFD9FF1200D9CF4D
:10333000E6FFE1CFD9FF040EE1260A0E106E116AF6
:10334000FD0EDBCF08F0FE0EDBCF09F010C00DF054
:1033500011C00EF0AAEC23F008C0DEFF09C0DDFFAB
:10336000FD0EDBCF10F0FE0EDBCF11F00A0E0D6E5E
:103370000E6A10C008F011C009F0AAEC23F004C0D6
:1033800010F005C011F0020E04C0DBFF030E05C0F3
:10339000DBFFD9CFE9FFDACFEAFFEE50ED1003E112
:1033A0000A0EDE6EDD6AD950FD0FE96EFF0EDA20DF
:1033B000EA6E640EEE180BE1ED5009E10A0EDE6EC6
:1033C000DD6AF36E020EF3CFDBFF030EDB6A020E43
:1033D000DBCFE6FF030EDBCFE6FFDECFE6FFDDCF80
:1033E000E6FF37D8E552E552E552E552040EE15CBE
:1033F00002E2E16AE552E16EE552E7CFD9FF120041
:10340000D9CFE6FFE1CFD9FF8398FB0EDBCFE6FFF4
:10341000FC0EDBCFE6FF46DEE552E552FD0EDBCFCC
:10342000E6FFFE0EDBCFE6FF3DDEE552E552838888
:10343000010EE66EE66A36D8E552E5528398010E33
:10344000E66EE66A2FD8E552E552E552E7CFD9FF9E
:103450001200D9CFE6FFE1CFD9FF839EFB0EDBCF71
:10346000E6FFFC0EDBCFE6FF8BDEE552E552FD0EFC
:10347000DBCFE6FFFE0EDBCFE6FF82DEE552E55254
:10348000838E010EE66EE66A0DD8E552E552839E04
:10349000010EE66EE66A06D8E552E552E552E7CF40
:1034A000D9FF1200D9CFE6FFE1CFD9FF040EE12604
:1034B000DE6ADD6ADECF10F0DDCF11F0FD0EDBCF6E
:1034C00012F0FE0EDBCF13F011501318E8AE02D04D
:1034D000133404D01250105C135011581DE2020E28
:1034E000DB6A030EDB6A020EDBCF10F0030EDBCFCC
:1034F00011F0D890115004E6010E105C000E115826
:1035000006E2020EDB2A030EEEE3DB2AECD7DF2A0B
:10351000010ED0E3DB2ACED7040EE15C02E2E16AC1
:0C352000E552E16EE552E7CFD9FF120042
:04352C00B06A810EF2
:10353000AF6EAC8AAC94B886AC98AB8EAB889E9AD2
:103540009D8A9F9A949C948E1200D9CFE6FFE1CF7A
:10355000D9FF040EE126DE6ADD6ADECF10F0DDCF92
:1035600011F0FD0EDBCF12F0FE0EDBCF13F0115089
:103570001318E8AE02D0133404D01250105C13506C
:1035800011581DE2020EDB6A030EDB6A020EDBCF6E
:1035900010F0030EDBCF11F0D890115004E6EE0EC0
:1035A000105C000E115806E2020EDB2A030EEEE359
:1035B000DB2AECD7DF2A010ED0E3DB2ACED7040EBC
:1035C000E15C02E2E16AE552E16EE552E7CFD9FF44
:1035D0001200D9CFE6FFE1CFD9FF9EA8FED7FE0E9D
:1035E000DB50AD6E9E98E552E7CFD9FF1200D9CFE0
:1035F000E6FFE1CFD9FFFD0EDBCFE9FFFE0EDBCF0B
:10360000EAFFEF5010E0FD0EDBCFE9FFFE0EDBCF4F
:10361000EAFFEF50E66EDDDFE552FD0EDB2AFE0E1F
:10362000EAE3DB2AE8D7E552E7CFD9FF1200D9CF8A
:10363000E6FFE1CFD9FFFD0EDBCFF6FFFE0EDBCFBD
:10364000F7FF0800F55015E0FD0EDBCFF6FFFE0E8C
:10365000DBCFF7FF0800F550E66EBBDFE552FD0E4D
:10366000DBCFF6FFDB2AFE0EDBCFF7FFE4E3DB2A3E
:10367000E2D7E552E7CFD9FF1200D9CFE6FFE1CF7D
:10368000D9FF050EE126010EF36EDB6E020EDB6A3A
:10369000030EDB6A040EDB6ADF6ADFCF10F0116A0B
:1036A00010BE1168FB0EDBCF12F0FC0EDBCF13F067
:1036B00011501318E8AE02D0133404D01250105C2D
:1036C000135011582DE2FD0EDBCF10F0FE0EDBCFB4
:1036D00011F0126A136A11AE02D012681368D95041
:1036E000010FE96EDACFEAFF10C00BF011C00CF049
:1036F00012C00DF013C00EF0EECF06F0EECF07F0C3
:10370000EECF08F0EFCF09F094EC24F005C0EDFF08
:1037100004C0EDFF03C0EDFF02C0EFFFDF2ABDD7FD
:10372000010EDBCF10F0020EDBCF11F0030EDBCF6A
:1037300012F0040EDBCF13F010C006F011C007F03A
:1037400012C008F013C009F0050EE15C02E2E16A64
:10375000E552E16EE552E7CFD9FF1200D9CFE6FF7F
:10376000E1CFD9FF020EE126DF6AFB0EDBCF10F0BE
:10377000FC0EDBCF11F0FD0EDBCF12F0FE0EDBCF27
:1037800013F0105011101210131005E1300EE66EF8
:1037900020DFE552F4D0D950FB0FE96EFF0EDA209E
:1037A000EA6ED890030EEB50000A08E6000EEE5CBD
:1037B000000EEE58000EEE58000EEE5815E22D0EDB
:1037C000E66E07DFE552D950FB0FE96EFF0EDA20F7
:1037D000EA6E000EEE6CEF1EEE22EF1EEE22EF1EE2
:1037E000EF22ED52ED52ED52DE520A0EDD6E010E69
:1037F000DBCF10F0000EE76E1018E8AE02D01034E8
:1038000003D0E750D880105401E3B9D0010EDB0497
:10381000146E156A14BE156814C0E6FF15C0E6FFE5
:103820000A0EE66EE66A29DFE552E552E552E552F8
:1038300006C010F007C011F008C012F009C013F064
:1038400006C00BF007C00CF008C00DF009C00EF068
:10385000FB0EDBCF06F0FC0EDBCF07F0FD0EDBCF5F
:1038600008F0FE0EDBCF09F0CCEC24F00650071078
:103870000810091041E0010EDF6EDB04186E196AB2
:1038800018BE196818C0E6FF19C0E6FF0A0EE66EFA
:10389000E66AF3DEE552E552E552E55206C014F061
:1038A00007C015F008C016F009C017F006C00BF0ED
:1038B00007C00CF008C00DF009C00EF0FB0EDBCF06
:1038C00006F0FC0EDBCF07F0FD0EDBCF08F0FE0E9E
:1038D000DBCF09F0CCEC24F006C010F007C011F0EB
:1038E00008C012F009C013F0300E1026000E11228D
:1038F00012221322105003D0DF5004E0300EE66E87
:1039000068DEE552010EDB04146E156A14BE1568FC
:1039100014C0E6FF15C0E6FF0A0EE66EE66AADDEED
:10392000E552E552E552E55206C010F007C011F02D
:1039300008C012F009C013F0D950FB0FE96EFF0E5A
:10394000DA20EA6E06C00BF007C00CF008C00DF0DC
:1039500009C00EF0EECF06F0EECF07F0EECF08F084
:10396000EFCF09F0CCEC24F005C0EDFF04C0EDFF73
:1039700003C0EDFF02C0EFFF010EDB0638D7020ED9
:10398000E15C02E2E16AE552E16EE552E7CFD9FF80
:06399000120037EF23F0E6
:0A399600D9CFE6FFE1CFD9FF020E02
:1039A000E126FE0EDB500F0BDF6EFE0EDB380F0B39
:1039B0000A0D010EF3CFDBFFDB50DF24106E020E89
:1039C000E15C02E2E16AE552E16E1050E552E7CFB8
:1039D000D9FF1200D9CFE6FFE1CFD9FF020EE126D1
:1039E0000A0E106E0E6EFE0EDBCF09F05DEC25F0B8
:1039F0000550DF6E0A0E106E0E6EFE0EDBCF09F064
:103A00005DEC25F00950100D010EF3CFDBFFDB500C
:103A1000DF24106E020EE15C02E2E16AE552E16E23
:103A20001050E552E7CFD9FF120094869488C79EC4
:103A3000C79CC690C692C694C686310EC86EC68A0A
:103A40001200D9CFE6FFE1CFD9FF9E96FE0EDB50E4
:103A5000D00FC96E9EA6FED7E552E7CFD9FF120060
:103A6000D9CFE6FFE1CFD9FF9E96FE0EDB50A00F27
:103A7000C96E9EA6FED7E552E7CFD9FF12009E96EB
:103A8000C5809EA6FED712009E96C5849EA6FED730
:103A90001200D9CFE6FFE1CFD9FF9E96FE0EDB5094
:103AA000C96E9EA6FED7E552E7CFD9FF12009E96BB
:103AB000C5869EA6FED7C95012009E96C59AC58897
:103AC0009EA6FED712009E96C58AC5889EA6FED7E2
:103AD0001200D9CFE6FFE1CFD9FFD1DFE66AB1DF2F
:103AE000E5520101010E8F6FE85004E0C550400B14
:103AF000FAE0F8D7FE0EDBCFE6FFCBDFE55201019F
:103B0000010E8F6FE85004E0C550400BFAE0F8D783
:103B1000FD0EDBCFE6FF5EDFE552E66EBADFE55273
:103B20000101010E8F6FE85004E0C550400BFAE030
:103B3000F8D7AADFE552E7CFD9FF1200D9CFE6FFC9
:103B4000E1CFD9FF9CDFE66A8BDFE5520101010E70
:103B50008F6FE85004E0C550400BFAE0F8D7FE0E36
:103B6000DBCFE6FF96DFE5520101010E8F6FE850D3
:103B700004E0C550400BFAE0F8D7FD0EDBCF10F0A3
:103B8000FE0EDBCF11F00001116A1050E66E81DFEE
:103B9000E5520101010E8F6FE85004E0C550400B63
:103BA000FAE0F8D7FC0EDBCFE6FF73DFE552010148
:103BB000010E8F6FE85004E0C550400BFAE0F8D7D3
:103BC00063DFE552E7CFD9FF1200D9CFE6FFE1CF9F
:103BD000D9FFE65254DFE66A34DFE5520101010EF7
:103BE0008F6FE85004E0C550400BFAE0F8D7FE0EA6
:103BF000DBCFE6FF4EDFE5520101010E8F6FE8508B
:103C000004E0C550400BFAE0F8D739DF010EE66E4C
:103C100018DFE5520101010E8F6FE85004E0C55036
:103C2000400BFAE0F8D743DFDF6EDFCFE6FFB3DE0D
:103C3000E552DF6EDF50E552E552E7CFD9FF1200C3
:103C4000D9CFE6FFE1CFD9FFE65219DFE66A08DFF8
:103C5000E5520101010E8F6FE85004E0C550400BA2
:103C6000FAE0F8D7FE0EDBCFE6FF13DFE5520101E5
:103C7000010E8F6FE85004E0C550400BFAE0F8D712
:103C8000FD0EDBCF10F0FE0EDBCF11F00001116A4C
:103C90001050E66EFEDEE5520101010E8F6FE85016
:103CA00004E0C550400BFAE0F8D7E9DE010EE66EFD
:103CB000D7DEE5520101010E8F6FE85004E0C550D8
:103CC000400BFAE0F8D7F3DEDF6EDF50E552E55245
:063CD000E7CFD9FF12004E
:0A3CD6000F0E946E82681200CF0EEC
:103CE0009414946E82681200D9CFE6FFE1CFD9FF19
:103CF000040EE126DE6ADD6ADECF10F0DDCF11F0C2
:103D0000D890115004E6020E105C000E115801E329
:103D100090D0DECFE9FFDDCFEAFF4C0EE926010EA1
:103D2000EA22EF1C826E020EDB6A030EDB6A020ED1
:103D3000DBCF10F0030EDBCF11F0D890115004E66A
:103D4000040E105C000E11586EE2020EDBCFE9FF8C
:103D5000030EDBCFEAFF500EE926010EEA22EF50F8
:103D600082143FE1DECF14F0DDCF15F0D890143689
:103D70001536D89014361536020EDB501424E96E31
:103D8000030EDB501520EA6ED890E936EA362C0E89
:103D9000E926010EEA22EECF12F0EFCF13F0010E6A
:103DA0001226000E1322DECF10F0DDCF11F0D890D6
:103DB00010361136D89010361136020EDB50102412
:103DC000E96E030EDB501120EA6ED890E936EA3630
:103DD0002C0EE926010EEA2212C0EEFF13C0EDFF01
:103DE0001BD0DECF10F0DDCF11F0D8901036113699
:103DF000D89010361136020EDB501024E96E030EF7
:103E0000DB501120EA6ED890E936EA362C0EE9260E
:103E1000010EEA22EE6AED6A020EDB2A030E01E2CF
:103E200086D7DB2A84D7DF2A010E01E265D7DB2A99
:103E300063D7040EE15C02E2E16AE552E16EE5520D
:103E4000E7CFD9FF1200D9CFE6FFE1CFD9FFFD0EB2
:103E5000DBCFE9FFFE0EDBCFEAFFD890E936EA368A
:103E60002C0EE926010EEA22010EEE1804E1ED50B7
:103E700002E1010E01D0000EE552E7CFD9FF12009A
:103E80000101050E2C1903E12D5101E1010C000C7B
:103E900001010A0E321903E1335101E1010C000C5A
:103EA0000101010E301901E131511AE00A0ED880EA
:103EB0003055000E315515E230C110F031C111F00E
:103EC000030E0D6E0E6A30C108F031C109F029EC05
:103ED00025F005C011F0010E041803E1115001E1B5
:103EE000010C000C0101010E2E1901E12F511AE005
:103EF0000A0ED8802E55000E2F5515E22EC110F057
:103F00002FC111F0030E0D6E0E6A2EC108F02FC1E5
:103F100009F029EC25F005C011F0010E041803E1A9
:103F2000115001E1010C000CD9CFE6FFE1CFD9FF20
:103F3000040EE126DE6ADD6ADECF10F0DDCF11F07F
:103F4000FD0EDBCF12F0FE0EDBCF13F01150131875
:103F5000E8AE02D0133404D01250105C1350115844
:103F60001DE2020EDB6A030EDB6A020EDBCF10F0ED
:103F7000030EDBCF11F0D890115004E6EE0E105C6A
:103F8000000E115806E2020EDB2A030EEEE3DB2AD6
:103F9000ECD7DF2A010ED0E3DB2ACED7040EE15C9A
:103FA00002E2E16AE552E16EE552E7CFD9FF120085
:103FB000FF0EE66EE66AE0D8E552E5521200010116
:103FC000906B9051E66EE66AD7D8E552E552120042
:103FD0000101901D906FE850E66EE66ACDD8E5527B
:103FE000E5521200480E01019019906FE850E66EFC
:103FF000E66AC2D8E552E5521200240E010190197A
:10400000906FE850E66EE66AB7D8E552E5521200C6
:10401000120E01019019906FE850E66EE66AACD876
:10402000E552E5521200F00E010190179087905171
:10403000E66EE66AA1D8E552E5521200F00E0101E3
:10404000901790859051E66EE66A96D8E552E55253
:104050001200F00E0101901790839051E66EE66A0F
:104060008BD8E552E55212000F0E01019017908D8A
:104070009051E66EE66A80D8E552E55212000F0EC6
:1040800001019017908B9051E66EE66A75D8E55263
:10409000E55212000F0E0101901790899051E66EC3
:1040A000E66A6AD8E552E5521200D9CFE6FFE1CFC1
:1040B000D9FF060EE126DE6ADD6AFD0EDBCF08F0D1
:1040C000FE0EDBCF09F0040E08C0DBFF050E09C0B1
:1040D000DBFF8192DECF10F0DDCF11F0D8901150D0
:1040E00004E6080E105C000E11583CE2800EE76EEC
:1040F000040EDBCF10F0050EE7501016116A020E09
:1041000010C0DBFF030E11C0DBFF040EDBCF10F08D
:10411000050EDBCF11F0D89010361136040E10C00A
:10412000DBFF050E11C0DBFFD950020FE96EDACFBD
:10413000EAFF800EEE1801E1ED5002E0000E01D022
:10414000010EE8B08180E8A081908182010EE66EC8
:10415000E66A2CD8E552E5528192DF2A010EBAE3D5
:10416000DB2AB8D7060EE15C02E2E16AE552E16EB5
:10417000E552E7CFD9FF1200D9CFE6FFE1CFD9FF53
:104180008390FD0EDBCFE6FFFE0EDBCFE6FF8DDF7B
:10419000E552E5528380010EE66EE66A07D8E552E5
:1041A000E5528390E552E7CFD9FF1200D9CFE6FF61
:1041B000E1CFD9FF040EE126DE6ADD6ADECF10F022
:1041C000DDCF11F0FD0EDBCF12F0FE0EDBCF13F0D2
:1041D00011501318E8AE02D0133404D01250105C02
:1041E000135011581DE2020EDB6A030EDB6A020E49
:1041F000DBCF10F0030EDBCF11F0D890115004E6A6
:10420000010E105C000E115806E2020EDB2A030EAE
:10421000EEE3DB2AECD7DF2A010ED0E3DB2ACED790
:10422000040EE15C02E2E16AE552E16EE552E7CF9D
:04423000D9FF1200A0
:0C42340053796E746178206572726F72AD
:104240002120506C6561736520747279206167610B
:10425000696E2E200D0A0020204175746F6D617407
:104260006963206D6F64652061637469766174654C
:104270006421002020536C6F77206D6F646520618E
:104280006374697661746564210020204E6577202F
:1042900059454C4C4F572074696D652069733A201D
:1042A0000020204E657720475245454E2074696DA9
:1042B000652069733A20000D0A00207365636F6EF4
:1042C00064732E200D0A0020204E6577205245444D
:1042D0002074696D652069733A200044617461201F
:1042E000726563656976656420737563636573736E
:1042F00066756C6C7921200D0A0059656C6C6F77BE
:104300002074696D653A2000477265656E20746996
:104310006D653A20005265642074696D653A004409
:104320006174612072656365697665642100454E3C
:1043300054455220534C4F57204D4F4445004E4F4B
:1043400000436F6E666F726D3F2020205945530009
:1043500054554E3A20332E59454C4C4F5700322E6F
:10436000475245454E0054554E3A20312E52454451
:1043700000342E534C4F57004D454E553A20332EA6
:1043800054554E4E494E4700342E20592D52004D63
:10439000414E55414C3A20332E20472D5200322EAB
:1043A00020522D59004D414E55414C3A20312E207E
:1043B000522D47003C00322E4D414E55414C004D90
:1043C000454E553A20312E4155544F005072657379
:1043D00073203120666F72206D656E7500535953DE
:1043E00054454D275320574F524B494E470059458E
:1043F0004C4C4F572054494D453A00475245454E85
:104400002054494D453A005375626D69743F2052FE
:1044100072657373204121005245442054494D4533
:104420003A00504841534520313A2059454C4C4FB1
:104430005700504841534520323A205245440050DD
:104440004841534520313A20475245454E00504897
:1044500041534520323A2059454C4C4F5700504863
:1044600041534520323A20475245454E005048417D
:0A447000534520313A205245440024
:06447A00F28ED08EF28CE0
:104480001200F19CF292F2881200D8CFE4FFE0CF44
:10449000E4FFE46EDACFE4FFE2CFDAFFE9CFE4FF36
:1044A000EACFE4FFF6CFE4FFF7CFE4FFF5CFE4FF78
:1044B000F3CFE4FFF4CFE4FFFACFE4FF00EE00F027
:1044C000100EE80403E3EECFE4FFFBD700EE10F09C
:1044D0000A0EE80403E3EECFE4FFFBD7E652F2A4B2
:1044E00007D0FFEC15F0F29401EC16F0ABEC17F0EE
:1044F0009EA007D0EAEC16F09E90A4EC16F0B9EC62
:1045000017F09EA207D006EC17F09E9202EC17F06F
:10451000C7EC17F0A1A207D0A9EC17F0A19263ECA9
:1045200017F0D5EC17F0F2B2F2929EAA03D09E9A41
:10453000C9EC1CF0E55200EE19F00A0EE80403E3A2
:10454000E5CFEDFFFBD700EE0FF0100EE80403E31C
:10455000E5CFEDFFFBD7E5CFFAFFE5CFF4FFE5CFE1
:10456000F3FFE5CFF5FFE5CFF7FFE5CFF6FFE5CFAA
:10457000EAFFE5CFE9FFE5CFDAFFE550E5CFE0FF61
:10458000E5CFD8FF1000DACFE4FFE2CFDAFFE9CFC2
:10459000E4FFEACFE4FFF6CFE4FFF7CFE4FFF5CF87
:1045A000E4FFF3CFE4FFF4CFE4FFFACFE4FF00EE43
:1045B00000F0100EE80403E3EECFE4FFFBD700EEBB
:1045C00010F00A0EE80403E3EECFE4FFFBD7E65257
:1045D000F2A407D0FFEC15F0F29401EC16F0ABEC6E
:1045E00017F09EA007D0EAEC16F09E90A4EC16F00F
:1045F000B9EC17F09EA207D006EC17F09E9202ECE1
:1046000017F0C7EC17F0A1A207D0A9EC17F0A19200
:1046100063EC17F0D5EC17F0F2B2F2929EAA03D039
:104620009E9AC9EC1CF0E55200EE19F00A0EE8045F
:1046300003E3E5CFEDFFFBD700EE0FF0100EE8042B
:1046400003E3E5CFEDFFFBD7E5CFFAFFE5CFF4FFBE
:10465000E5CFF3FFE5CFF5FFE5CFF7FFE5CFF6FFB9
:0E466000E5CFEAFFE5CFE9FFE5CFDAFF110075
:02466E00D9CFA2
:10467000E6FFE1CFD9FFE652AE50DF6E0101775180
:10468000050A2BE0010A22E0070A12E0010A0BE00A
:10469000020A02E0010A57E1210EDF5C55E17E6B60
:1046A0007A6B020E4ED0210EDF5C15E1030E49D06D
:1046B0007A51EA6A810FE96E000EEA22DFCFEFFF3E
:1046C0007A2B7C517A5D40E3040E3BD0230EDF5CF5
:1046D00002E1050E36D0010E34D0230EDF5C30E14E
:1046E000010E786F520E0001815D03E10101340E6D
:1046F00023D0470E815D03E101012F0E1DD0590E1D
:10470000815D03E101013B0E17D0530E815D03E192
:104710000101510E11D0410E815D03E10101520EE4
:104720000BD0520E815D09E0470E815D06E0590E07
:10473000815D03E00101C90E7E6F0101776B04D03A
:10474000010E776F01D0776BE552E552E7CFD9FFC5
:044750001200120041
:0C475400006A0EAEB3EF23F00D6C0E1ED9
:10476000E86A0E22001E09AEBBEF23F0086C091E9A
:10477000E86A0922001E29EC25F009BECBEF23F0E0
:1047800000AE000C086C091EE86A0922046C051EC4
:10479000E86A0522000C00BEC2EF23F00188FF0C7E
:1047A000006A0EAEDBEF23F00C6C0D1E0E1EE86AE5
:1047B0000D220E22001E09AEE5EF23F0076C081E45
:1047C000091EE86A08220922001EF0EC24F009BE46
:1047D000F8EF23F000AE000C076C081E091EE86A13
:1047E00008220922036C041E051E04220522000C67
:0A47F00000BEECEF23F00188FF0C7F
:0647FA001E0EF66E000E1B
:10480000F76E000EF86E01010900F550866F090081
:10481000F550876F03E1866701D03DD00900F55060
:10482000816F0900F550826F0900F550836F090010
:104830000900F550E96E0900F550EA6E090009001B
:104840000900F550846F0900F550856F09000900D3
:10485000F6CF88F1F7CF89F1F8CF8AF181C1F6FF61
:1048600082C1F7FF83C1F8FF0101845302E1855340
:1048700007E00900F550EE6E8407F8E28507F9D7E6
:1048800088C1F6FF89C1F7FF8AC1F8FF01018607D9
:08489000000E875BBFD7120088
:08489800010E926E0E0EC16EBE
:1048A000C26A040EC06EC2801200D9CFE6FFE1CF0B
:1048B000D9FF020EE126DE6ADD6AC282C2B2FED7ED
:1048C000C450DE6EDD6ADECF12F0DDCF13F0D8907B
:1048D00012361336D89012361336060EC3CFE7FFC2
:1048E000070B04E0E742E79EE806FCE1E7501224EC
:1048F000106E000E132010C0DEFFDD6EDECF61FFF4
:10490000DDCF62FFDECF10F0DDCF11F010C0F3FF7E
:1049100011C0F4FF020EE15C02E2E16AE552E16ED1
:08492000E552E7CFD9FF1200B8
:0849280006500B02F3CF02F070
:10493000F4CF03F00C02F3500326000EF420046EB3
:1049400006500D02F3500426000EF420056E0650AA
:104950000E02F350052607500B02F3500326F450C5
:104960000422000E052207500C02F3500426F450D6
:10497000052207500D02F350052608500B02F35094
:104980000426F450052208500C02F3500526095065
:084990000B02F3500526120092
:08499800056A046A036A026A61
:1049A000200EE76ED89006360736083609360236EE
:1049B0000336043605360B50025C0C5003580D507C
:1049C00004580E50055809E30B50025E0C50035A70
:1049D0000D50045A0E50055A062AE72EE4D712004D
:1049E000056A046A036A180EE76ED890073608361F
:1049F00009360336043605360C50035C0D50045856
:104A00000E50055807E30C50035E0D50045A0E502B
:0A4A1000055A072AE72EEAD7120024
:064A1A00CA94CA90CA8292
:104A20009B0ECB6EBD98BD9ABE6ABD9CBD9EBD90CF
:104A3000BD92BD84BD869494CA841200D9CFE6FF8E
:104A4000E1CFD9FFFE0EDB50BE6EE552E7CFD9FFB6
:024A5000120052
:0E4A5200056A046A100EE76ED8900836093621
:104A6000043605360D50045C0E50055805E30D5014
:0E4A7000045E0E50055A082AE72EF0D71200F9
:024A7E00800EA8
:104A8000F36E00EE00F00F0E01D81200EA6002D0C3
:0E4A9000EE6AFCD7F350E9601200EE6AFCD724
:024A9E001EEE0A
:104AA00000F02EEE00F0F86A019CFDEC23F003EC20
:0A4AB00000F046EC00F0FBD7120006
:064ABA00056A080EE76E1C
:104AC000D890093605360E50055C02E3056E092ABA
:064AD000E72EF7D71200EB
:0A4AD60000000000000000000000D6
:104AE00000000000000000000000000000000100C5
:064AF000010001000100BD
:0A4AF600000000000000000303228E
:024B00000000B3
:0E4B0200C0FFF9FFA4FFB0FF99FF92FF82FFF2
:104B1000F8FF80FF90FFFFFFFF0105030000000387
:0E4B20000502000014141400004600000000FE
:024B2E00000085
:104B300000000000000010101010101010101818C5
:104B40001818181818181C1C1C1C1C1C1C1C1E1EB9
:104B50001E1E1E1E1E1E1F1F1F1F1F1F1F1F0000A9
:104B60000000000000000000000000000000000045
:104B70000000000000000000000000000000000035
:0F4B800000000000000000000000000000000026
:014B8F000025
:104B90000000D00022222207250910000100000099
:0A4BA000000000000000000000000B
:064BAA0000000000000005
:104BB00000000000000000000000000000000000F5
:104BC00000000000000000000000102040800102F2
:034BD000040814C2
:020000040030CA
:0100010002FC
:0100020003FA
:010003001EDE
:010005008179
:010006008178
:010008000FE8
:01000900C036
:01000A000FE6
:01000B00E014
:01000C000FE4
:01000D0040B2
:00000001FF
