:020000040000FA
:0600000023EF18F01200CE
:020006001200E6
:0600080091EF15F012005B
:01000E0000F1
:01000F0000F0
:0400100000000000EC
:0600180013EF15F01200C9
:02001E000900D7
:100020005B31000035010000290000004031000074
:10003000E50000001B00000010000000940100001B
:1000400004000000DF300000000F0000610000002D
:10005000AA30000000010000350000000F00000081
:100060009A010000010000009E3000007E010000A7
:100070000C0000007E3000005E0100002000000047
:0C0080000E0000009901000001000000CB
:04008C00D9CFE6FFE3
:10009000E1CFD9FF040EE126DE6ADD6ADECF10F083
:1000A000DDCF11F0126A136A11AE02D01268136824
:1000B000D950FB0FE96EFF0EDA20EA6EEE50105CAD
:1000C000EE501158EE501258EE5013581DE2020E29
:1000D000DB6A030EDB6A020EDBCF10F0030EDBCF10
:1000E00011F0D890115004E6050E105C000E115866
:1000F00006E2020EDB2A030EEEE3DB2AECD7DF2A50
:10010000010ECCE3DB2ACAD7040EE15C02E2E16A0D
:10011000E552E16EE552E7CFD9FF1200D9CFE6FFF5
:10012000E1CFD9FF040EE126DE6ADD6ADECF10F0F2
:10013000DDCF11F0126A136A11AE02D01268136893
:10014000D950FB0FE96EFF0EDA20EA6EEE50105C1C
:10015000EE501158EE501258EE5013581DE2020E98
:10016000DB6A030EDB6A020EDBCF10F0030EDBCF7F
:1001700011F0D890115004E6EE0E105C000E1158EC
:1001800006E2020EDB2A030EEEE3DB2AECD7DF2ABF
:10019000010ECCE3DB2ACAD7040EE15C02E2E16A7D
:1001A000E552E16EE552E7CFD9FF1200D9CFE6FF65
:1001B000E1CFD9FF0F0E8116FE0EDB50F00B81123E
:1001C0008186010EE66EE66AE66AE66AA7DFE55218
:1001D000E552E552E5528196010EE66EE66AE66A60
:1001E000E66A9CDFE552E552E552E5520F0E8116B4
:1001F000FE0EDB38F00B81128186010EE66EE66A98
:10020000E66AE66A8BDFE552E552E552E5528196F1
:10021000010EE66EE66AE66AE66A80DFE552E552BE
:10022000E552E552E552E7CFD9FF1200D9CFE6FFFC
:10023000E1CFD9FFE652936A190EE66EE66AE66AE6
:10024000E66A6CDFE552E552E552E5520F0E811683
:10025000F80E81160F0E8116300E81128186010E66
:10026000E66EE66AE66AE66A59DFE552E552E5526D
:10027000E5528196010EE66EE66AE66AE66A4EDFB0
:10028000E552E552E552E5520F0E8116300E81120D
:100290008186010EE66EE66AE66AE66A3FDFE552AF
:1002A000E552E552E5528196010EE66EE66AE66A8F
:1002B000E66A34DFE552E552E552E5520F0E81164B
:1002C000300E81128186010EE66EE66AE66AE66A03
:1002D00025DFE552E552E552E5528196010EE66EC4
:1002E000E66AE66AE66A1ADFE552E552E552E55249
:1002F0000F0E8116818A8186010EE66EE66AE66A35
:10030000E66A0CDFE552E552E552E5528196010EB0
:10031000E66EE66AE66AE66A01DFE552E552E55214
:10032000E552280EE66E42DFE5520C0EE66E3EDF29
:10033000E552E552E552E7CFD9FF1200D9CFE6FFEB
:10034000E1CFD9FF020EE126DF6A010EDB6A81945C
:100350000F0EE66EE66AE66AE66A98DEE552E55258
:10036000E552E5520F0E81128186E66EE66AE66A74
:10037000E66A8CDEE552E552E552E5520F0E811435
:10038000E76E010EE7CFDBFF81960F0EE66EE66AA1
:10039000E66AE66A7BDEE552E552E552E5520F0E6B
:1003A00081128186E66EE66AE66AE66A6FDEE552EB
:1003B000E552E552E5520F0E8114DF6E010EDB505F
:1003C000DF128196010EE66EE66AE66AE66A5EDE96
:1003D000E552E552E552E552DF50106E020EE15C47
:1003E00002E2E16AE552E16E1050E552E7CFD9FF33
:1003F0001200D9CFE6FFE1CFD9FFE652DF6A9EDFD8
:10040000DF6EDFBEFCD7DF50E552E552E7CFD9FF04
:100410001200D9CFE6FFE1CFD9FF0F0E8116FE0EF5
:10042000DB5081128186050EE66EE66AE66AE66AB0
:100430002DDEE552E552E552E5528196050EE66E57
:10044000E66AE66AE66A22DEE552E552E552E552E0
:10045000E552E7CFD9FF1200D9CFE6FFE1CFD9FFB0
:100460008194050EE66EE66AE66AE66A0FDEE552FC
:10047000E552E552E552FE0EDBCFE6FFCADFE5525C
:10048000FE0EDB38F00BE66EC4DFE552E552E7CF37
:10049000D9FF1200D9CFE6FFE1CFD9FF8184050E45
:1004A000E66EE66AE66AE66AF1DDE552E552E55295
:1004B000E552FE0EDBCFE6FFACDFE552FE0EDB3889
:1004C000F00BE66EA6DFE5528194E552E7CFD9FF47
:1004D0001200D9CFE6FFE1CFD9FFFE0EDBCFE6FF5A
:1004E000D9DFE552E552E7CFD9FF1200D9CFE6FFB9
:1004F000E1CFD9FFFE0EDBCFE6FFCCDFE552E552C0
:10050000E7CFD9FF1200D9CFE6FFE1CFD9FFFD0E2B
:10051000DBCFF6FFFE0EDBCFF7FF0800F5500FE054
:10052000FD0EDBCFF6FFDB2AFE0EDBCFF7FF01E38C
:10053000DB2A0800F550E66ED9DFE552E8D7E55230
:10054000E7CFD9FF1200D9CFE6FFE1CFD9FFE652BE
:10055000FD0EDB500F0B106EFE0EDB50010B400D3D
:10056000F3501024DF6E7F0EDF14800FDF6EDFCFBD
:10057000E6FF72DFE552E552E552E7CFD9FF120000
:10058000010EE66E69DFE552E66AE66ADCDFE552F7
:10059000E5521200D9CFE6FFE1CFD9FF050EE126E3
:1005A000010EF36EDB6E020EDB6A030EDB6A040ED5
:1005B000DB6ADF6ADFCF10F0116A10BE1168FB0E34
:1005C000DBCF12F0FC0EDBCF13F011501318E8AEA6
:1005D00002D0133404D01250105C135011582DE285
:1005E000FD0EDBCF10F0FE0EDBCF11F0126A136AA6
:1005F00011AE02D012681368D950010FE96EDACF3C
:10060000EAFF10C00BF011C00CF012C00DF013C0C7
:100610000EF0EECF06F0EECF07F0EECF08F0EFCF02
:1006200009F032EC17F005C0EDFF04C0EDFF03C088
:10063000EDFF02C0EFFFDF2ABDD7010EDBCF10F0C8
:10064000020EDBCF11F0030EDBCF12F0040EDBCF76
:1006500013F010C006F011C007F012C008F013C06C
:1006600009F0050EE15C02E2E16AE552E16EE55255
:10067000E7CFD9FF1200D9CFE6FFE1CFD9FF020EB5
:10068000E126DF6AFB0EDBCF10F0FC0EDBCF11F0B2
:10069000FD0EDBCF12F0FE0EDBCF13F01050111069
:1006A0001210131005E1300EE66E20DFE552F4D093
:1006B000D950FB0FE96EFF0EDA20EA6ED890030ED8
:1006C000EB50000A08E6000EEE5C000EEE58000E3D
:1006D000EE58000EEE5815E22D0EE66E07DFE552DD
:1006E000D950FB0FE96EFF0EDA20EA6E000EEE6CB9
:1006F000EF1EEE22EF1EEE22EF1EEF22ED52ED5224
:10070000ED52DE52070EDD6E010EDBCF10F0000E53
:10071000E76E1018E8AE02D0103403D0E750D8804E
:10072000105401E3B9D0010EDB04146E156A14BE37
:10073000156814C0E6FF15C0E6FF0A0EE66EE66A0D
:1007400029DFE552E552E552E55206C010F007C038
:1007500011F008C012F009C013F006C00BF007C07A
:100760000CF008C00DF009C00EF0FB0EDBCF06F058
:10077000FC0EDBCF07F0FD0EDBCF08F0FE0EDBCF6B
:1007800009F0A0EC17F0065007100810091041E01E
:10079000010EDF6EDB04186E196A18BE196818C0E6
:1007A000E6FF19C0E6FF0A0EE66EE66AF3DEE552E2
:1007B000E552E552E55206C014F007C015F008C036
:1007C00016F009C017F006C00BF007C00CF008C007
:1007D0000DF009C00EF0FB0EDBCF06F0FC0EDBCFF8
:1007E00007F0FD0EDBCF08F0FE0EDBCF09F0A0EC2A
:1007F00017F006C010F007C011F008C012F009C0D1
:1008000013F0300E1026000E112212221322105067
:1008100003D0DF5004E0300EE66E68DEE552010ED4
:10082000DB04146E156A14BE156814C0E6FF15C00B
:10083000E6FF0A0EE66EE66AADDEE552E552E552E7
:10084000E55206C010F007C011F008C012F009C050
:1008500013F0D950FB0FE96EFF0EDA20EA6E06C0E6
:100860000BF007C00CF008C00DF009C00EF0EECF81
:1008700006F0EECF07F0EECF08F0EFCF09F0A0ECD6
:1008800017F005C0EDFF04C0EDFF03C0EDFF02C08F
:10089000EFFF010EDB0638D7020EE15C02E2E16AEF
:1008A000E552E16EE552E7CFD9FF1200D9CFE6FF5E
:1008B000E1CFD9FFFD0EDBCFE6FFFE0EDBCFE6FF7B
:1008C00042DEE552E552D950F90FE96EFF0EDA200B
:1008D000EA6EEECFE6FFEECFE6FFEECFE6FFEFCF1C
:1008E000E6FFC9DEE552E552E552E552E552E7CFB3
:1008F000D9FF1200D9CFE6FFE1CFD9FFFD0EDBCF44
:10090000E6FFFE0EDBCFE6FF1EDEE552E552FB0EF4
:10091000DBCFE6FFFC0EDBCFE6FFF5DDE552E5526F
:10092000E552E7CFD9FF1200D9CFE6FFE1CFD9FFDB
:100930007BCF10F07CCF11F0040ED890103611361A
:10094000E806FBE1410E10260F0E112210500F0198
:100950007D25E96E11507E21EA6EFE0EDBCFEFFFA2
:100960007D2B000E7E23E552E7CFD9FF1200D9CFB1
:10097000E6FFE1CFD9FFE652DF6ADFCF10F0100EBD
:10098000E76E1018E8AE02D0E73402D0E750105CF2
:1009900018E2DFCFE9FFEA6AE9BEEA68410EE9261C
:1009A0000F0EEA22200EEF6EDFCFE9FFEA6AE9BE02
:1009B000EA68510EE9260F0EEA22200EEF6EDF2ABA
:1009C000DCD7E552E552E7CFD9FF1200D9CFE6FFD9
:1009D000E1CFD9FFE6520F014051030A52E0010A6C
:1009E00036E0030A1AE0010A67E1E66AE66AABDD6F
:1009F000E552E552DF6A080EDF5C0CE2DF50EA6A7E
:100A0000410FE96E0F0EEA22EF50E66E6FDDE55200
:100A1000DF2AF1D70F01010E32D0080EE66EE66A2A
:100A200092DDE552E552DF6A080EDF5C0DE2080E4A
:100A3000DF24EA6A410FE96E0F0EEA22EF50E66EFC
:100A400055DDE552DF2AF0D70F01020E18D0E66A15
:100A5000010EE66E78DDE552E552DF6A080EDF5CD6
:100A60000CE2DF50EA6A510FE96E0F0EEA22EF50F6
:100A7000E66E3CDDE552DF2AF1D70F01030E406F31
:100A80001CD0080EE66E010EE66E5DDDE552E55205
:100A9000DF6A080EDF5C0DE2080EDF24EA6A510F00
:100AA000E96E0F0EEA22EF50E66E20DDE552DF2AF6
:100AB000F0D70F01406B01D0406BE552E552E7CF14
:100AC000D9FF1200D9CFE6FFE1CFD9FFE6520F01DF
:100AD0004051010A1BE0010A32E1E66AE66A33DDB1
:100AE000E552E552DF6A100EDF5C0CE2DF50EA6A85
:100AF000410FE96E0F0EEA22EF50E66EF7DCE55289
:100B0000DF2AF1D70F01010E406F1AD0E66A010EFD
:100B1000E66E19DDE552E552DF6A100EDF5C0CE28D
:100B2000DF50EA6A510FE96E0F0EEA22EF50E66ECF
:100B3000DDDCE552DF2AF1D70F01406B01D0406BBD
:100B4000E552E552E7CFD9FF1200D9CFE6FFE1CF5A
:100B5000D9FFE652E66AE66AF6DCE552E552DF6A5C
:100B6000100EDF5C0CE2DF50EA6A410FE96E0F0EF7
:100B7000EA22EF50E66EBADCE552DF2AF1D7E66AE8
:100B8000010EE66EE0DCE552E552DF6A100EDF5C36
:100B90000CE2DF50EA6A510FE96E0F0EEA22EF50C5
:100BA000E66EA4DCE552DF2AF1D7E552E552E7CF45
:100BB000D9FF1200D9CFE6FFE1CFD9FFFE0EDB50FF
:100BC000010B0F017B6F7C6BFD0EDB500F0B7D6FFC
:100BD0007E6BFC0EDB500A0802E1610E05D0FC0EB4
:100BE000DB500D0805E1640EF36EFC0EF3CFDBFF66
:100BF0007BCF10F07CCF11F0040ED8901036113658
:100C0000E806FBE1410E10260F0E112210500F01D5
:100C10007D25E96E11507E21EA6EFC0EDBCFEFFFE1
:100C2000E552E7CFD9FF1200D9CFE6FFE1CFD9FFD8
:100C3000020EE126DF6AFE0EDB50010B0F017B6F17
:100C40007C6BFD0EDB500F0B7D6F7E6BF90EDBCFE7
:100C500010F0FA0EDBCF11F0FB0EDBCF12F0FC0E22
:100C6000DBCF13F0105011101210131005E1300EED
:100C7000E66E5ADEE552F5D0D950F90FE96EFF0E57
:100C8000DA20EA6ED890030EEB50000A08E6000E58
:100C9000EE5C000EEE58000EEE58000EEE5815E217
:100CA0002D0EE66E41DEE552D950F90FE96EFF0ECA
:100CB000DA20EA6E000EEE6CEF1EEE22EF1EEE2240
:100CC000EF1EEF22ED52ED52ED52DE52070EDD6EB9
:100CD000010EDBCF10F0000EE76E1018E8AE02D068
:100CE000103403D0E750D880105401E3BAD0010E7D
:100CF000DB04146E156A14BE156814C0E6FF15C037
:100D0000E6FF0A0EE66EE66A45DCE552E552E5527C
:100D1000E55206C010F007C011F008C012F009C07B
:100D200013F006C00BF007C00CF008C00DF009C0AE
:100D30000EF0F90EDBCF06F0FA0EDBCF07F0FB0E5C
:100D4000DBCF08F0FC0EDBCF09F0A0EC17F006506B
:100D500007100810091041E0010EDF6EDB04186E69
:100D6000196A18BE196818C0E6FF19C0E6FF0A0E16
:100D7000E66EE66A0FDCE552E552E552E55206C042
:100D800014F007C015F008C016F009C017F006C02F
:100D90000BF007C00CF008C00DF009C00EF0F90E02
:100DA000DBCF06F0FA0EDBCF07F0FB0EDBCF08F04F
:100DB000FC0EDBCF09F0A0EC17F006C010F007C066
:100DC00011F008C012F009C013F0300E1026000E0A
:100DD000112212221322105003D0DF5004E0300EF3
:100DE000E66EA2DDE552010EDB04146E156A14BE38
:100DF000156814C0E6FF15C0E6FF0A0EE66EE66A47
:100E0000CAEC02F0E552E552E552E55206C010F098
:100E100007C011F008C012F009C013F0D950F90F43
:100E2000E96EFF0EDA20EA6E06C00BF007C00CF088
:100E300008C00DF009C00EF0EECF06F0EECF07F0BF
:100E4000EECF08F0EFCF09F0A0EC17F005C0EDFFF2
:100E500004C0EDFF03C0EDFF02C0EFFF010EDB0693
:100E600037D7020EE15C02E2E16AE552E16EE5523B
:100E7000E7CFD9FF1200D9CFE6FFE1CFD9FFFE0EB1
:100E8000DB50010B0F017B6F7C6BFD0EDB500F0BFA
:100E90007D6F7E6BFB0EDBCFF6FFFC0EDBCFF7FF2B
:100EA0000800F5500FE0FB0EDBCFF6FFDB2AFC0E4F
:100EB000DBCFF7FF01E3DB2A0800F550E66E34DDF7
:0C0EC000E552E8D7E552E7CFD9FF120059
:040ECC00D9CFE6FF95
:100ED000E1CFD9FFD59EFD0EDBCF5EF1FE0EDBCF5D
:100EE0005FF1D59C13681468156A5EC116F05FC186
:100EF00017F0186A1650135C106E17501458116EC4
:100F000018501558126E0C6A010E0D6E0E6A10C044
:100F100007F011C008F012C009F02BEC16F00350D6
:100F2000D66E13681468156A5EC116F05FC117F0BB
:100F3000186A1650135C106E17501458116E185022
:100F40001558126E0C6A010E0D6E0E6A10C007F075
:100F500011C008F012C009F02BEC16F007C010F019
:100F600008C011F009C012F00750D76ED59AD58687
:100F7000F28AF294F184D58EE552E7CFD9FF1200C0
:100F8000D59E120013681468156A5EC116F05FC121
:100F900017F0186A1650135C106E17501458116E23
:100FA00018501558126E0C6A010E0D6E0E6A10C0A4
:100FB00007F011C008F012C009F02BEC16F0035036
:100FC000D66E13681468156A5EC116F05FC117F01B
:100FD000186A1650135C106E17501458116E185082
:100FE0001558126E0C6A010E0D6E0E6A10C007F0D5
:100FF00011C008F012C009F02BEC16F007C010F079
:1010000008C011F009C012F00750D76ED58E12003B
:10101000D9CFE6FFE1CFD9FFCD90FD0EDBCF60F158
:10102000FE0EDBCF61F113681468156A60C116F01B
:1010300061C117F0186A1650135C106E17501458DF
:10104000116E18501558126E0C6A010E0D6E0E6A54
:1010500010C007F011C008F012C009F02BEC16F018
:101060000750CF6E13681468156A60C116F061C12D
:1010700017F0186A1650135C106E17501458116E42
:1010800018501558126E0C6A010E0D6E0E6A10C0C3
:1010900007F011C008F012C009F02BEC16F003C0E5
:1010A00010F004C011F005C012F00350CE6E9D8008
:1010B0009E909F90CD8ECD8CCD98CD9ACD96CD9291
:1010C000CD80E552E7CFD9FF120013681468156A86
:1010D00060C116F061C117F0186A1650135C106EEB
:1010E00017501458116E18501558126E0C6A010ED4
:1010F0000D6E0E6A10C007F011C008F012C009F0A2
:101100002BEC16F00750CF6E13681468156A60C197
:1011100016F061C117F0186A1650135C106E175064
:101120001458116E18501558126E0C6A010E0D6E7F
:101130000E6A10C007F011C008F012C009F02BECC5
:1011400016F003C010F004C011F005C012F00350F7
:10115000CE6ECD801200CD901200D9CFE6FFE1CF48
:10116000D9FFCA94CC6AFE0EDB500101626F636B3B
:10117000CB6E9D829E929F92CA90CA92CA84E5527B
:10118000E7CFD9FF120062C1CBFFCA841200CA9414
:101190001200D9CFE6FFE1CFD9FFB190FD0EDBCF32
:1011A00064F1FE0EDBCF65F113681468156A64C143
:1011B00016F065C117F0186A1650135C106E1750C0
:1011C0001458116E18501558126E0C6A010E0D6EDF
:1011D0000E6A10C007F011C008F012C009F02BEC25
:1011E00016F00750B36E13681468156A64C116F0E0
:1011F00065C117F0186A1650135C106E175014581A
:10120000116E18501558126E0C6A010E0D6E0E6A92
:1012100010C007F011C008F012C009F02BEC16F056
:1012200003C010F004C011F005C012F00350B26EFC
:10123000A082A192A292B18EB198B19AB192B180DE
:10124000E552E7CFD9FF120013681468156A64C12C
:1012500016F065C117F0186A1650135C106E17501F
:101260001458116E18501558126E0C6A010E0D6E3E
:101270000E6A10C007F011C008F012C009F02BEC84
:1012800016F00350B26E13681468156A64C116F044
:1012900065C117F0186A1650135C106E1750145879
:1012A000116E18501558126E0C6A010E0D6E0E6AF2
:1012B00010C007F011C008F012C009F02BEC16F0B6
:1012C00007C010F008C011F009C012F00750B36E4B
:1012D000B1801200B190120001016E2B000E6F233D
:1012E00076516E5D77516F5904E36E6B6F6B010E33
:1012F000666F12000101702B000E71237851705D32
:101300007951715904E3706B716B010E676F1200B4
:101310000101722B000E73237A51725D7B51735958
:1013200004E3726B736B010E686F12000101742B82
:10133000000E75237C51745D7D51755904E3746B07
:10134000756B010E696F1200D9CFE6FFE1CFD9FFAF
:10135000FD0EDBCF76F1FE0EDBCF77F101016E6B78
:101360006F6B666BE552E7CFD9FF1200D9CFE6FF6E
:10137000E1CFD9FFFD0EDBCF78F1FE0EDBCF79F1A7
:10138000050E0D6E0E6A78C108F079C109F005EC02
:1013900016F008C078F109C079F10101706B716B2A
:1013A000676BE552E7CFD9FF1200D9CFE6FFE1CF57
:1013B000D9FFFD0EDBCF7AF1FE0EDBCF7BF1050E00
:1013C0000D6E0E6A7AC108F07BC109F005EC16F0CB
:1013D00008C07AF109C07BF10101726B736B686B15
:1013E000E552E7CFD9FF1200D9CFE6FFE1CFD9FF11
:1013F000FD0EDBCF7CF1FE0EDBCF7DF10A0E0D6E14
:101400000E6A7CC108F07DC109F005EC16F008C039
:101410007CF109C07DF10101746B756B696BE5525C
:06142000E7CFD9FF120026
:0A142600D9CFE6FFE1CFD9FF060E93
:10143000E126DE6ADD6AFD0EDBCFE9FFFE0EDBCFC3
:10144000EAFFD890E936EA36000EE926010EEA22D4
:10145000040EEECFDBFF050EEDCFDBFF8396DECF74
:1014600010F0DDCF11F0D890115004E6080E105C9A
:10147000000E11583CE2800EE76E040EDBCF10F038
:10148000050EE7501016116A020E10C0DBFF030EA6
:1014900011C0DBFF040EDBCF10F0050EDBCF11F027
:1014A000D89010361136040E10C0DBFF050E11C0A7
:1014B000DBFFD950020FE96EDACFEAFF800EEE189B
:1014C00001E1ED5002E0000E01D0010EE8B083848E
:1014D000E8A083948386010EE66EE66AA4D9E552FD
:1014E000E5528396DF2A010EBAE3DB2AB8D7060E4F
:1014F000E15C02E2E16AE552E16EE552E7CFD9FF35
:101500001200D9CFE6FFE1CFD9FF060EE126DE6A51
:10151000DD6AFD0EDBCFE9FFFE0EDBCFEAFFD890E0
:10152000E936EA36000EE926010EEA22040EEECF75
:10153000DBFF050EEDCFDBFF839CDECF10F0DDCFB0
:1015400011F0D890115004E6080E105C000E1158EE
:101550003CE2800EE76E040EDBCF10F0050EE75084
:101560001016116A020E10C0DBFF030E11C0DBFF64
:10157000040EDBCF10F0050EDBCF11F0D890103643
:101580001136040E10C0DBFF050E11C0DBFFD95071
:10159000020FE96EDACFEAFF800EEE1801E1ED509E
:1015A00002E0000E01D0010EE8B0838AE8A0839A21
:1015B000838C010EE66EE66A36D9E552E552839CCD
:1015C000DF2A010EBAE3DB2AB8D7060EE15C02E29D
:1015D000E16AE552E16EE552E7CFD9FF1200D9CFBB
:1015E000E6FFE1CFD9FF040EE1260A0E106E116A64
:1015F000FD0EDBCF08F0FE0EDBCF09F010C00DF0C2
:1016000011C00EF005EC16F008C0DEFF09C0DDFFCA
:10161000FD0EDBCF10F0FE0EDBCF11F00A0E0D6ECB
:101620000E6A10C008F011C009F005EC16F004C0F5
:1016300010F005C011F0020E04C0DBFF030E05C060
:10164000DBFFD9CFE9FFDACFEAFFEE50ED1003E17F
:101650000A0EDE6EDD6AD950FD0FE96EFF0EDA204C
:10166000EA6E640EEE180BE1ED5009E10A0EDE6E33
:10167000DD6AF36E020EF3CFDBFF030EDB6A020EB0
:10168000DBCFE6FF030EDBCFE6FFDECFE6FFDDCFED
:10169000E6FF77D8E552E552E552E552040EE15CEB
:1016A00002E2E16AE552E16EE552E7CFD9FF1200AE
:1016B000D9CFE6FFE1CFD9FF040EE1260A0E106E66
:1016C000116AFD0EDBCF08F0FE0EDBCF09F010C073
:1016D0000DF011C00EF005EC16F008C0DEFF09C0D9
:1016E000DDFFFD0EDBCF10F0FE0EDBCF11F00A0E9A
:1016F0000D6E0E6A10C008F011C009F005EC16F06E
:1017000004C010F005C011F0020E04C0DBFF030E90
:1017100005C0DBFFD9CFE9FFDACFEAFFEE50ED10CD
:1017200003E10A0EDE6EDD6AD950FD0FE96EFF0E91
:10173000DA20EA6E640EEE180BE1ED5009E10A0EB4
:10174000DE6EDD6AF36E020EF3CFDBFF030EDB6AA3
:10175000020EDBCFE6FF030EDBCFE6FFDECFE6FFB8
:10176000DDCFE6FF37D8E552E552E552E552040EEB
:10177000E15C02E2E16AE552E16EE552E7CFD9FFB2
:101780001200D9CFE6FFE1CFD9FF8398FB0EDBCF64
:10179000E6FFFC0EDBCFE6FF46DEE552E552FD0E2E
:1017A000DBCFE6FFFE0EDBCFE6FF3DDEE552E55286
:1017B0008388010EE66EE66A36D8E552E5528398D4
:1017C000010EE66EE66A2FD8E552E552E552E7CF04
:1017D000D9FF1200D9CFE6FFE1CFD9FF839EFB0EE0
:1017E000DBCFE6FFFC0EDBCFE6FF8BDEE552E552FA
:1017F000FD0EDBCFE6FFFE0EDBCFE6FF82DEE5521D
:10180000E552838E010EE66EE66A0DD8E552E5528A
:10181000839E010EE66EE66A06D8E552E552E55271
:10182000E7CFD9FF1200D9CFE6FFE1CFD9FF040EF1
:10183000E126DE6ADD6ADECF10F0DDCF11F0FD0EAD
:10184000DBCF12F0FE0EDBCF13F011501318E8AE11
:1018500002D0133404D01250105C135011581DE202
:10186000020EDB6A030EDB6A020EDBCF10F0030E02
:10187000DBCF11F0D890115004E6010E105C000E81
:10188000115806E2020EDB2A030EEEE3DB2AECD748
:10189000DF2A010ED0E3DB2ACED7040EE15C02E2A0
:0E18A000E16AE552E16EE552E7CFD9FF120092
:0218AE00B06A1E
:1018B000810EAF6EAC8AAC94B886AC98AB8EAB8818
:1018C0009E9A9D8A9F9A949C948E1200D9CFE6FF8F
:1018D000E1CFD9FF040EE126DE6ADD6ADECF10F02B
:1018E000DDCF11F0FD0EDBCF12F0FE0EDBCF13F0DB
:1018F00011501318E8AE02D0133404D01250105C0B
:10190000135011581DE2020EDB6A030EDB6A020E51
:10191000DBCF10F0030EDBCF11F0D890115004E6AE
:10192000EE0E105C000E115806E2020EDB2A030ECA
:10193000EEE3DB2AECD7DF2A010ED0E3DB2ACED799
:10194000040EE15C02E2E16AE552E16EE552E7CFA6
:10195000D9FF1200D9CFE6FFE1CFD9FF9EA8FED76D
:10196000FE0EDB50AD6E9E98E552E7CFD9FF120018
:10197000D9CFE6FFE1CFD9FFFD0EDBCFE9FFFE0EA9
:10198000DBCFEAFFEF5010E0FD0EDBCFE9FFFE0EEC
:10199000DBCFEAFFEF50E66EDDDFE552FD0EDB2A1E
:1019A000FE0EEAE3DB2AE8D7E552E7CFD9FF1200C3
:1019B000D9CFE6FFE1CFD9FFFD0EDBCFF6FFFE0E5C
:1019C000DBCFF7FF0800F55015E0FD0EDBCFF6FF8B
:1019D000FE0EDBCFF7FF0800F550E66EBBDFE552E9
:1019E000FD0EDBCFF6FFDB2AFE0EDBCFF7FFE4E3D5
:1019F000DB2AE2D7E552E7CFD9FF1200D9CFE6FFC5
:101A0000E1CFD9FF050EE126010EF36EDB6E020E6B
:101A1000DB6A030EDB6A040EDB6ADF6ADFCF10F0DD
:101A2000116A10BE1168FB0EDBCF12F0FC0EDBCF8B
:101A300013F011501318E8AE02D0133404D0125032
:101A4000105C135011582DE2FD0EDBCF10F0FE0E8E
:101A5000DBCF11F0126A136A11AE02D0126813685C
:101A6000D950010FE96EDACFEAFF10C00BF011C0B8
:101A70000CF012C00DF013C00EF0EECF06F0EECF5A
:101A800007F0EECF08F0EFCF09F032EC17F005C009
:101A9000EDFF04C0EDFF03C0EDFF02C0EFFFDF2A42
:101AA000BDD7010EDBCF10F0020EDBCF11F0030E1D
:101AB000DBCF12F0040EDBCF13F010C006F011C024
:101AC00007F012C008F013C009F0050EE15C02E255
:101AD000E16AE552E16EE552E7CFD9FF1200D9CFB6
:101AE000E6FFE1CFD9FF020EE126DF6AFB0EDBCF76
:101AF00010F0FC0EDBCF11F0FD0EDBCF12F0FE0E6E
:101B0000DBCF13F0105011101210131005E1300E3E
:101B1000E66E20DFE552F4D0D950FB0FE96EFF0EE0
:101B2000DA20EA6ED890030EEB50000A08E6000EA9
:101B3000EE5C000EEE58000EEE58000EEE5815E268
:101B40002D0EE66E07DFE552D950FB0FE96EFF0E52
:101B5000DA20EA6E000EEE6CEF1EEE22EF1EEE2291
:101B6000EF1EEF22ED52ED52ED52DE520A0EDD6E07
:101B7000010EDBCF10F0000EE76E1018E8AE02D0B9
:101B8000103403D0E750D880105401E3B9D0010ECF
:101B9000DB04146E156A14BE156814C0E6FF15C088
:101BA000E6FF0A0EE66EE66A29DFE552E552E552E7
:101BB000E55206C010F007C011F008C012F009C0CD
:101BC00013F006C00BF007C00CF008C00DF009C000
:101BD0000EF0FB0EDBCF06F0FC0EDBCF07F0FD0EA8
:101BE000DBCF08F0FE0EDBCF09F0A0EC17F00650BB
:101BF00007100810091041E0010EDF6EDB04186EBB
:101C0000196A18BE196818C0E6FF19C0E6FF0A0E67
:101C1000E66EE66AF3DEE552E552E552E55206C0AD
:101C200014F007C015F008C016F009C017F006C080
:101C30000BF007C00CF008C00DF009C00EF0FB0E51
:101C4000DBCF06F0FC0EDBCF07F0FD0EDBCF08F09C
:101C5000FE0EDBCF09F0A0EC17F006C010F007C0B5
:101C600011F008C012F009C013F0300E1026000E5B
:101C7000112212221322105003D0DF5004E0300E44
:101C8000E66E68DEE552010EDB04146E156A14BEC2
:101C9000156814C0E6FF15C0E6FF0A0EE66EE66A98
:101CA000ADDEE552E552E552E55206C010F007C040
:101CB00011F008C012F009C013F0D950FB0FE96E03
:101CC000FF0EDA20EA6E06C00BF007C00CF008C069
:101CD0000DF009C00EF0EECF06F0EECF07F0EECF1C
:101CE00008F0EFCF09F0A0EC17F005C0EDFF04C03D
:101CF000EDFF03C0EDFF02C0EFFF010EDB0638D79A
:101D0000020EE15C02E2E16AE552E16EE552E7CFE4
:081D1000D9FF1200EFEF16F0FD
:081D180060D8E80EE66E030E30
:101D2000E66E12D8E552E55201016905FDE1320E79
:101D3000E66EE66AF4EC09F0E552E55292D865ECFD
:101D400012F0E6EC04F0F0D7D9CFE6FFE1CFD9FFEF
:101D5000040EE126DE6ADD6ADECF10F0DDCF11F081
:101D6000FD0EDBCF12F0FE0EDBCF13F01150131877
:101D7000E8AE02D0133404D01250105C1350115846
:101D80001DE2020EDB6A030EDB6A020EDBCF10F0EF
:101D9000030EDBCF11F0D890115004E6EE0E105C6C
:101DA000000E115806E2020EDB2A030EEEE3DB2AD8
:101DB000ECD7DF2A010ED0E3DB2ACED7040EE15C9C
:101DC00002E2E16AE552E16EE552E7CFD9FF120087
:101DD000956A836A936A816A120001011669010E8D
:101DE000176F460E2A6F0101836BF2DFD0EC13F000
:101DF0000A0EE66EE66AE66EE66AC1EC0BF0E552A4
:101E0000E552E552E5520A0EE66EE66AE66EE66ACD
:101E1000EAEC0BF0E552E552E552E55216EC01F022
:101E200060EC12F00BEC15F057EC0CF0C0EC02F08B
:101E3000B7EC04F0F40EE66E010EE66E85DFE552B7
:101E4000E552660EE66EB70EE66EC9EC08F0E55296
:101E5000E552320EE66EE66AF4EC09F0E552E55220
:101E6000120001018751C80A01E170D1010A01E1A4
:101E70006AD1C80A01E012000101810501E07BD1AD
:101E8000816B530E0001815D59E1300E106E865159
:101E9000D880105453E38651390850E3300E116E48
:101EA0008751D88011544AE38751390847E3300EEF
:101EB000126E8851D880125441E3885139083EE3AC
:101EC000300E885D116E300E875D0A0DF3CF10F075
:101ED000300E865D640DF350102411240101216F32
:101EE000B7EC04F0210EE66E2F0EE66ED8EC0CF087
:101EF000E552E5521B0EE66E2F0EE66ED8EC0CF0A6
:101F0000E552E55221C110F0116A126A136A21C12B
:101F1000E6FF11C0E6FF12C0E6FF13C0E6FF6FEC5C
:101F20000DF0E552E552E552E552180EE66E2F0E21
:101F3000E66ED8EC0CF0E552E55206D00101010E38
:101F4000816F0101C80E876F480E00018B5D42E171
:101F5000300E106E9051D88010543CE390513908E7
:101F600039E3300E116E9151D880115433E3915101
:101F7000390830E3300E915D106E300E905D0A0D21
:101F8000F35010240101216FB7EC04F0120EE66E3D
:101F90002F0EE66ED8EC0CF0E552E55221C110F0A0
:101FA000116A126A136A21C1E6FF11C0E6FF12C06E
:101FB000E6FF13C0E6FF6FEC0DF0E552E552E55287
:101FC000E552180EE66E2F0EE66ED8EC0CF0E552D8
:101FD000E55206D00101010E816F0101C80E876F25
:101FE000540E0001945D42E1300E106E9951D8807C
:101FF00010543CE39951390839E3300E116E9A516F
:10200000D880115433E39A51390830E3300E9A5D89
:10201000106E300E995D0A0DF35010240101216FEE
:10202000B7EC04F00C0EE66E2F0EE66ED8EC0CF05A
:10203000E552E55221C110F0116A126A136A21C1FA
:10204000E6FF11C0E6FF12C0E6FF13C0E6FF6FEC2B
:102050000DF0E552E552E552E552180EE66E2F0EF0
:10206000E66ED8EC0CF0E552E55206D00101010E07
:10207000816F0101C80E876F460E00019D5D29E149
:10208000300E106EA151D880105423E3A1513908AD
:1020900020E3300EA15D0101216FB7EC04F00C0EBE
:1020A000E66E2F0EE66ED8EC0CF0E552E55201011B
:1020B000215104E1060EE66E2F0E05D021050FE139
:1020C000010EE66E2F0EE66ED8EC0CF0E552E552EE
:1020D00006D00101010E816F0101C80E876F4C0E01
:1020E0000001A45D29E1300E106EAA51D880105471
:1020F00023E3AA51390820E3300EAA5D0101216FC4
:10210000B7EC04F0FA0EE66E2E0EE66ED8EC0CF08C
:10211000E552E5520101215104E1060EE66E2F0E53
:1021200005D021050FE1010EE66E2F0EE66ED8EC0C
:102130000CF0E552E55212000101010E816F010120
:10214000C80E876F1200C80E876F1200010181054B
:1021500012E1816BD70EE66E2E0EE66ED8EC0CF017
:10216000E552E552D40EE66E2E0EE66ED8EC0CF07B
:08217000E552E55212001200D5
:08217800D9CFE6FFE1CFD9FF4A
:10218000020EE126FE0EDB500F0BDF6EFE0EDB387B
:102190000F0B0A0D010EF3CFDBFFDB50DF24106EB7
:1021A000020EE15C02E2E16AE552E16E1050E55296
:1021B000E7CFD9FF1200D9CFE6FFE1CFD9FF020E5A
:1021C000E1260A0E106E0E6EFE0EDBCF09F031EC2A
:1021D00018F00550DF6E0A0E106E0E6EFE0EDBCF8D
:1021E00009F031EC18F00950100D010EF3CFDBFFB0
:1021F000DB50DF24106E020EE15C02E2E16AE55280
:10220000E16E1050E552E7CFD9FF12009486948812
:10221000C79EC79CC690C692C694C686310EC86E2D
:10222000C68A1200D9CFE6FFE1CFD9FF9E96FE0EF7
:10223000DB50D00FC96E9EA6FED7E552E7CFD9FF7F
:102240001200D9CFE6FFE1CFD9FF9E96FE0EDB50FC
:10225000A00FC96E9EA6FED7E552E7CFD9FF1200A8
:102260009E96C5809EA6FED712009E96C5849EA609
:10227000FED71200D9CFE6FFE1CFD9FF9E96FE0E22
:10228000DB50C96E9EA6FED7E552E7CFD9FF1200FC
:102290009E96C5869EA6FED7C95012009E96C59AE8
:1022A000C5889EA6FED712009E96C58AC5889EA6A2
:1022B000FED71200D9CFE6FFE1CFD9FFD1DFE66A22
:1022C000B1DFE5520101010E986FE85004E0C550FE
:1022D000400BFAE0F8D7FE0EDBCFE6FFCBDFE5528E
:1022E0000101010E986FE85004E0C550400BFAE080
:1022F000F8D7FD0EDBCFE6FF5EDFE552E66EBADF14
:10230000E5520101010E986FE85004E0C550400B02
:10231000FAE0F8D7AADFE552E7CFD9FF1200D9CF0C
:10232000E6FFE1CFD9FF9CDFE66A8BDFE5520101D2
:10233000010E986FE85004E0C550400BFAE0F8D762
:10234000FE0EDBCFE6FF96DFE5520101010E986F2E
:10235000E85004E0C550400BFAE0F8D7FD0EDBCFA3
:1023600010F0FE0EDBCF11F00001116A1050E66E86
:1023700081DFE5520101010E986FE85004E0C5507D
:10238000400BFAE0F8D7FC0EDBCFE6FF73DFE55237
:102390000101010E986FE85004E0C550400BFAE0CF
:1023A000F8D763DFE552E7CFD9FF1200D9CFE6FFB8
:1023B000E1CFD9FFE65254DFE66A34DFE55201018E
:1023C000010E986FE85004E0C550400BFAE0F8D7D2
:1023D000FE0EDBCFE6FF4EDFE5520101010E986FE6
:1023E000E85004E0C550400BFAE0F8D739DF010EA1
:1023F000E66E18DFE5520101010E986FE85004E027
:10240000C550400BFAE0F8D743DFDF6EDFCFE6FFC1
:10241000B3DEE552DF6EDF50E552E552E7CFD9FF7C
:102420001200D9CFE6FFE1CFD9FFE65219DFE66A05
:1024300008DFE5520101010E986FE85004E0C55035
:10244000400BFAE0F8D7FE0EDBCFE6FF13DFE552D4
:102450000101010E986FE85004E0C550400BFAE00E
:10246000F8D7FD0EDBCF10F0FE0EDBCF11F0000130
:10247000116A1050E66EFEDEE5520101010E986F02
:10248000E85004E0C550400BFAE0F8D7E9DE010E51
:10249000E66ED7DEE5520101010E986FE85004E0C8
:1024A000C550400BFAE0F8D7F3DEDF6EDF50E5529F
:0824B000E552E7CFD9FF12004D
:0824B8000F0E946E8268120001
:1024C000CF0E9414946E82681200D9CFE6FFE1CF4C
:1024D000D9FF040EE126DE6ADD6ADECF10F0DDCF23
:1024E00011F0D890115004E6020E105C000E115845
:1024F00001E390D0DECFE9FFDDCFEAFF550EE926FC
:10250000010EEA22EF1C826E020EDB6A030EDB6A0A
:10251000020EDBCF10F0030EDBCF11F0D89011507C
:1025200004E6040E105C000E11586EE2020EDBCFC2
:10253000E9FF030EDBCFEAFF590EE926010EEA227E
:10254000EF5082143FE1DECF14F0DDCF15F0D890CC
:1025500014361536D89014361536020EDB50142476
:10256000E96E030EDB501520EA6ED890E936EA36A4
:10257000350EE926010EEA22EECF12F0EFCF13F06E
:10258000010E1226000E1322DECF10F0DDCF11F067
:10259000D89010361136D89010361136020EDB5016
:1025A0001024E96E030EDB501120EA6ED890E93654
:1025B000EA36350EE926010EEA2212C0EEFF13C0FC
:1025C000EDFF1BD0DECF10F0DDCF11F0D89010362C
:1025D0001136D89010361136020EDB501024E96EF9
:1025E000030EDB501120EA6ED890E936EA36350E3C
:1025F000E926010EEA22EE6AED6A020EDB2A030EDC
:1026000001E286D7DB2A84D7DF2A010E01E265D7F3
:10261000DB2A63D7040EE15C02E2E16AE552E16E77
:10262000E552E7CFD9FF1200D9CFE6FFE1CFD9FFBE
:10263000FD0EDBCFE9FFFE0EDBCFEAFFD890E936D7
:10264000EA36350EE926010EEA22010EEE1804E103
:10265000ED5002E1010E01D0000EE552E7CFD9FFA7
:1026600012000101050E351903E1365101E1010C9B
:10267000000C01010A0E3B1903E13C5101E1010C80
:10268000000C0101010E391901E13A511AE00A0E5C
:10269000D8803955000E3A5515E239C110F03AC1CB
:1026A00011F0030E0D6E0E6A39C108F03AC109F03F
:1026B000FDEC17F005C011F0010E041803E11150F4
:1026C00001E1010C000C0101010E371901E1385143
:1026D0001AE00A0ED8803755000E385515E237C17A
:1026E00010F038C111F0030E0D6E0E6A37C108F0FC
:1026F00038C109F0FDEC17F005C011F0010E041807
:1027000003E1115001E1010C000CD9CFE6FFE1CF4C
:10271000D9FF040EE126DE6ADD6ADECF10F0DDCFE0
:1027200011F0FD0EDBCF12F0FE0EDBCF13F01150D7
:102730001318E8AE02D0133404D01250105C1350BA
:1027400011581DE2020EDB6A030EDB6A020EDBCFBC
:1027500010F0030EDBCF11F0D890115004E6EE0E0E
:10276000105C000E115806E2020EDB2A030EEEE3A7
:10277000DB2AECD7DF2A010ED0E3DB2ACED7040E0A
:10278000E15C02E2E16AE552E16EE552E7CFD9FF92
:02279000120035
:0E279200FF0EE66EE66AE0D8E552E552120050
:1027A0000101996B9951E66EE66AD7D8E552E55278
:1027B00012000101991D996FE850E66EE66ACDD8C6
:1027C000E552E5521200480E01019919996FE8503F
:1027D000E66EE66AC2D8E552E5521200240E010107
:1027E0009919996FE850E66EE66AB7D8E552E55256
:1027F0001200120E01019919996FE850E66EE66A0F
:10280000ACD8E552E5521200F00E010199179987F4
:102810009951E66EE66AA1D8E552E5521200F00E33
:102820000101991799859951E66EE66A96D8E552A5
:10283000E5521200F00E0101991799839951E66E45
:10284000E66A8BD8E552E55212000F0E0101991786
:10285000998D9951E66EE66A80D8E552E5521200EC
:102860000F0E01019917998B9951E66EE66A75D89A
:10287000E552E55212000F0E0101991799899951FD
:10288000E66EE66A6AD8E552E5521200D9CFE6FF55
:10289000E1CFD9FF060EE126DE6ADD6AFD0EDBCF51
:1028A00008F0FE0EDBCF09F0040E08C0DBFF050EBA
:1028B00009C0DBFF8192DECF10F0DDCF11F0D890A0
:1028C000115004E6080E105C000E11583CE2800E18
:1028D000E76E040EDBCF10F0050EE7501016116AFC
:1028E000020E10C0DBFF030E11C0DBFF040EDBCFB6
:1028F00010F0050EDBCF11F0D89010361136040E13
:1029000010C0DBFF050E11C0DBFFD950020FE96ECE
:10291000DACFEAFF800EEE1801E1ED5002E0000E82
:1029200001D0010EE8B08180E8A081908182010E83
:10293000E66EE66A2CD8E552E5528192DF2A010E56
:10294000BAE3DB2AB8D7060EE15C02E2E16AE5529F
:10295000E16EE552E7CFD9FF1200D9CFE6FFE1CF14
:10296000D9FF8390FD0EDBCFE6FFFE0EDBCFE6FF47
:102970008DDFE552E5528380010EE66EE66A07D8E8
:10298000E552E5528390E552E7CFD9FF1200D9CF47
:10299000E6FFE1CFD9FF040EE126DE6ADD6ADECF75
:1029A00010F0DDCF11F0FD0EDBCF12F0FE0EDBCF0D
:1029B00013F011501318E8AE02D0133404D01250A3
:1029C000105C135011581DE2020EDB6A030EDB6A25
:1029D000020EDBCF10F0030EDBCF11F0D8901150B8
:1029E00004E6010E105C000E115806E2020EDB2A0E
:1029F000030EEEE3DB2AECD7DF2A010ED0E3DB2A5D
:102A0000CED7040EE15C02E2E16AE552E16EE552E6
:062A1000E7CFD9FF120020
:0A2A1600F28ED08EF28C1200F19CBB
:102A2000F292F2881200D8CFE4FFE0CFE4FFE46E28
:102A3000DACFE4FFE2CFDAFFE9CFE4FFEACFE4FF49
:102A4000F6CFE4FFF7CFE4FFF5CFE4FFF3CFE4FFE9
:102A5000F4CFE4FFFACFE4FF00EE00F0100EE8043C
:102A600003E3EECFE4FFFBD700EE10F00A0EE8041C
:102A700003E3EECFE4FFFBD7E652F2A407D0C0ECAD
:102A800007F0F294C2EC07F06CEC09F09EA007D0BE
:102A9000ABEC08F09E9065EC08F07AEC09F09EA291
:102AA00007D0C7EC08F09E92C3EC08F088EC09F060
:102AB000A1A207D06AEC09F0A19224EC09F096ECEF
:102AC00009F0F2B2F2929EAA03D09E9A8AEC0EF01E
:102AD000E55200EE19F00A0EE80403E3E5CFEDFF3E
:102AE000FBD700EE0FF0100EE80403E3E5CFEDFF97
:102AF000FBD7E5CFFAFFE5CFF4FFE5CFF3FFE5CF56
:102B0000F5FFE5CFF7FFE5CFF6FFE5CFEAFFE5CF2D
:102B1000E9FFE5CFDAFFE550E5CFE0FFE5CFD8FFED
:102B20001000DACFE4FFE2CFDAFFE9CFE4FFEACF2B
:102B3000E4FFF6CFE4FFF7CFE4FFF5CFE4FFF3CFF8
:102B4000E4FFF4CFE4FFFACFE4FF00EE00F0100E54
:102B5000E80403E3EECFE4FFFBD700EE10F00A0E2B
:102B6000E80403E3EECFE4FFFBD7E652F2A407D07C
:102B7000C0EC07F0F294C2EC07F06CEC09F09EA0F8
:102B800007D0ABEC08F09E9065EC08F07AEC09F009
:102B90009EA207D0C7EC08F09E92C3EC08F088EC28
:102BA00009F0A1A207D06AEC09F0A19224EC09F087
:102BB00096EC09F0F2B2F2929EAA03D09E9A8AECA9
:102BC0000EF0E55200EE19F00A0EE80403E3E5CF3B
:102BD000EDFFFBD700EE0FF0100EE80403E3E5CFA6
:102BE000EDFFFBD7E5CFFAFFE5CFF4FFE5CFF3FF2D
:102BF000E5CFF5FFE5CFF7FFE5CFF6FFE5CFEAFF3D
:0A2C0000E5CFE9FFE5CFDAFF110090
:062C0A00006A0EAE0EEFA1
:102C100016F00D6C0E1EE86A0E22001E09AE16EFAD
:102C200016F0086C091EE86A0922001EFDEC17F078
:102C300009BE26EF16F000AE000C086C091EE86A0B
:102C40000922046C051EE86A0522000C00BE1DEF77
:102C500016F00188FF0C006A0EAE36EF16F00C6C11
:102C60000D1E0E1EE86A0D220E22001E09AE40EF58
:102C700016F0076C081E091EE86A08220922001EC9
:102C8000C4EC17F009BE53EF16F000AE000C076C51
:102C9000081E091EE86A08220922036C041E051E8C
:102CA00004220522000C00BE47EF16F00188FF0C3D
:102CB0001E0EF66E000EF76E000EF86E0101090092
:102CC000F5508F6F0900F550906F03E18F6701D0C9
:102CD0003DD00900F5508A6F0900F5508B6F09004F
:102CE000F5508C6F09000900F550E96E0900F550A8
:102CF000EA6E090009000900F5508D6F0900F550D2
:102D00008E6F09000900F6CF91F1F7CF92F1F8CF5D
:102D100093F18AC1F6FF8BC1F7FF8CC1F8FF010167
:102D20008D5302E18E5307E00900F550EE6E8D07DA
:102D3000F8E28E07F9D791C1F6FF92C1F7FF93C170
:0E2D4000F8FF01018F07000E905BBFD7120055
:022D4E00010E74
:102D5000926E0E0EC16EC26A040EC06EC280120068
:102D6000D9CFE6FFE1CFD9FF020EE126DE6ADD6AA8
:102D7000C282C2B2FED7C450DE6EDD6ADECF12F070
:102D8000DDCF13F0D89012361336D89012361336A2
:102D9000060EC3CFE7FF070B04E0E742E79EE80615
:102DA000FCE1E7501224106E000E132010C0DEFF6D
:102DB000DD6EDECF61FFDDCF62FFDECF10F0DDCF55
:102DC00011F010C0F3FF11C0F4FF020EE15C02E24B
:0E2DD000E16AE552E16EE552E7CFD9FF12004D
:022DDE00D9CF4B
:102DE000E6FFE1CFD9FFE652AE50DF6E0101805120
:102DF000050A25E0010A1BE0070A0BE0030A02E0CE
:102E0000010A29E1210EDF5C27E1876B836B030E4A
:102E100014D08351EA6A810FE96E000EEA22DFCFF7
:102E2000EFFF832B8551835D17E3040E06D0230E3D
:102E3000DF5C02E1050E01D0010E806F0DD0010EA6
:102E4000816F530E0001815D03E10101010E876F67
:102E50000101806B01D0806BE552E552E7CFD9FFCD
:042E6000120012004A
:0C2E640006500B02F3CF02F0F4CF03F095
:102E70000C02F3500326000EF420046E06500D02DF
:102E8000F3500426000EF420056E06500E02F35097
:102E9000052607500B02F3500326F4500422000EBF
:102EA000052207500C02F3500426F4500522075067
:102EB0000D02F350052608500B02F3500426F4507F
:102EC000052208500C02F350052609500B02F3505E
:042ED00005261200C1
:0C2ED4000D0A0053796E7461782065725D
:102EE000726F722120506C65617365207472792055
:102EF000616761696E2E200D0A004C494748543DB8
:102F0000004F4E3B20004F46463B200054454D505D
:102F10003D0048554D493D003B2000535349443D39
:102F2000004461746120726563656976656420732D
:102F300075636365737366756C6C7921200D0A0087
:102F4000056A046A036A026A200EE76ED8900636A4
:102F500007360836093602360336043605360B5076
:102F6000025C0C5003580D5004580E50055809E3EC
:102F70000B50025E0C50035A0D50045A0E50055A65
:082F8000062AE72EE4D7120037
:082F8800056A046A036A180ED1
:102F9000E76ED8900736083609360336043605360C
:102FA0000C50035C0D5004580E50055807E30C50AC
:102FB000035E0D50045A0E50055A072AE72EEAD731
:022FC0001200FD
:0E2FC200CA94CA90CA829B0ECB6EBD98BD9A6F
:102FD000BE6ABD9CBD9EBD90BD92BD84BD869494CD
:102FE000CA841200D9CFE6FFE1CFD9FFFE0EDB5035
:0A2FF000BE6EE552E7CFD9FF1200D4
:062FFA00056A046A100ED6
:10300000E76ED89008360936043605360D50045C54
:103010000E50055805E30D50045E0E50055A082A5F
:06302000E72EF0D71200BC
:0A302600800EF36E00EE00F00F0EB6
:1030300001D81200EA6002D0EE6AFCD7F350E960D2
:063040001200EE6AFCD74D
:0A3046001EEE00F02EEE00F0F86A16
:10305000019C58EC16F003EC00F08CEC0EF0FBD762
:0230600012005C
:0E306200056A080EE76ED890093605360E5046
:0E307000055C02E3056E092AE72EF7D7120071
:02307E00000050
:103080000000000000000000000000000000000040
:0E30900000000000000001000100010001002E
:02309E00000030
:0A30A00000000000000303220000FE
:0630AA00C0FFF9FFA4FFC6
:1030B000B0FF99FF92FF82FFF8FF80FF90FFFFFFB4
:1030C000FF010503020000030502030502000014CE
:0F30D00014140000460000000000000000000083
:0130DF0000F0
:1030E0000000000000000010101010101010101848
:1030F000181818181818181C1C1C1C1C1C1C1C1E2A
:103100001E1E1E1E1E1E1E1F1F1F1F1F1F1F1F00F5
:1031100000000000000000000000000000000000AF
:10312000000000000000000000000000000000009F
:10313000000000000000000000000000000000008F
:10314000000000D000222222072509100001000003
:0B315000000000000000000000000074
:05315B0000000000006F
:10316000000000000000000000000000000000005F
:10317000000000000000000000000010204080015E
:043180000204081429
:020000040030CA
:0100010002FC
:0100020003FA
:010003001EDE
:010005008179
:010006008178
:010008000FE8
:01000900C036
:01000A000FE6
:01000B00E014
:01000C000FE4
:01000D0040B2
:00000001FF
